{
  "abi": [
    {
      "inputs": [],
      "payable": false,
      "stateMutability": "nonpayable",
      "type": "constructor"
    },
    {
      "anonymous": false,
      "inputs": [
        {
          "indexed": true,
          "internalType": "address",
          "name": "token0",
          "type": "address"
        },
        {
          "indexed": true,
          "internalType": "address",
          "name": "token1",
          "type": "address"
        },
        {
          "indexed": false,
          "internalType": "address",
          "name": "pair",
          "type": "address"
        },
        {
          "indexed": false,
          "internalType": "uint256",
          "name": "",
          "type": "uint256"
        }
      ],
      "name": "PairCreated",
      "type": "event"
    },
    {
      "constant": true,
      "inputs": [],
      "name": "INIT_CODE_PAIR_HASH",
      "outputs": [
        {
          "internalType": "bytes32",
          "name": "",
          "type": "bytes32"
        }
      ],
      "payable": false,
      "stateMutability": "view",
      "type": "function"
    },
    {
      "constant": false,
      "inputs": [
        {
          "internalType": "address",
          "name": "token",
          "type": "address"
        },
        {
          "internalType": "address",
          "name": "to",
          "type": "address"
        },
        {
          "internalType": "uint256",
          "name": "value",
          "type": "uint256"
        }
      ],
      "name": "_safeTransfer",
      "outputs": [],
      "payable": true,
      "stateMutability": "payable",
      "type": "function"
    },
    {
      "constant": true,
      "inputs": [
        {
          "internalType": "uint256",
          "name": "",
          "type": "uint256"
        }
      ],
      "name": "allPairs",
      "outputs": [
        {
          "internalType": "address",
          "name": "",
          "type": "address"
        }
      ],
      "payable": false,
      "stateMutability": "view",
      "type": "function"
    },
    {
      "constant": true,
      "inputs": [],
      "name": "allPairsLength",
      "outputs": [
        {
          "internalType": "uint256",
          "name": "",
          "type": "uint256"
        }
      ],
      "payable": false,
      "stateMutability": "view",
      "type": "function"
    },
    {
      "constant": false,
      "inputs": [
        {
          "internalType": "address",
          "name": "tokenA",
          "type": "address"
        },
        {
          "internalType": "address",
          "name": "tokenB",
          "type": "address"
        }
      ],
      "name": "createPair",
      "outputs": [
        {
          "internalType": "address",
          "name": "pair",
          "type": "address"
        }
      ],
      "payable": false,
      "stateMutability": "nonpayable",
      "type": "function"
    },
    {
      "constant": true,
      "inputs": [],
      "name": "feeTo",
      "outputs": [
        {
          "internalType": "address",
          "name": "",
          "type": "address"
        }
      ],
      "payable": false,
      "stateMutability": "view",
      "type": "function"
    },
    {
      "constant": true,
      "inputs": [],
      "name": "feeToSetter",
      "outputs": [
        {
          "internalType": "address",
          "name": "",
          "type": "address"
        }
      ],
      "payable": false,
      "stateMutability": "view",
      "type": "function"
    },
    {
      "constant": true,
      "inputs": [
        {
          "internalType": "address",
          "name": "",
          "type": "address"
        },
        {
          "internalType": "address",
          "name": "",
          "type": "address"
        }
      ],
      "name": "getPair",
      "outputs": [
        {
          "internalType": "address",
          "name": "",
          "type": "address"
        }
      ],
      "payable": false,
      "stateMutability": "view",
      "type": "function"
    },
    {
      "constant": false,
      "inputs": [
        {
          "internalType": "address",
          "name": "_feeTo",
          "type": "address"
        }
      ],
      "name": "setFeeTo",
      "outputs": [],
      "payable": false,
      "stateMutability": "nonpayable",
      "type": "function"
    },
    {
      "constant": false,
      "inputs": [
        {
          "internalType": "address",
          "name": "_feeToSetter",
          "type": "address"
        }
      ],
      "name": "setFeeToSetter",
      "outputs": [],
      "payable": false,
      "stateMutability": "nonpayable",
      "type": "function"
    }
  ],
  "evm": {
    "bytecode": {
      "linkReferences": {},
      "object": "608060405234801561001057600080fd5b50600180546001600160a01b031990811633908117909255600080549091169091179055613d90806100436000396000f3fe6080604052600436106100b15760003560e01c80635855a25a11610069578063c9c653961161004e578063c9c65396146101f4578063e6a439051461023c578063f46901ed14610284576100b1565b80635855a25a1461019f578063a2e74af6146101b4576100b1565b80631e3dd18b1161009a5780631e3dd18b1461010957806326e6cdde14610133578063574f2ba314610178576100b1565b8063017e7e58146100b6578063094b7415146100f4575b600080fd5b3480156100c257600080fd5b506100cb6102c4565b6040805173ffffffffffffffffffffffffffffffffffffffff9092168252519081900360200190f35b34801561010057600080fd5b506100cb6102e0565b34801561011557600080fd5b506100cb6004803603602081101561012c57600080fd5b50356102fc565b6101766004803603606081101561014957600080fd5b5073ffffffffffffffffffffffffffffffffffffffff813581169160208101359091169060400135610330565b005b34801561018457600080fd5b5061018d61064e565b60408051918252519081900360200190f35b3480156101ab57600080fd5b5061018d610654565b3480156101c057600080fd5b50610176600480360360208110156101d757600080fd5b503573ffffffffffffffffffffffffffffffffffffffff16610705565b34801561020057600080fd5b506100cb6004803603604081101561021757600080fd5b5073ffffffffffffffffffffffffffffffffffffffff813581169160200135166107d2565b34801561024857600080fd5b506100cb6004803603604081101561025f57600080fd5b5073ffffffffffffffffffffffffffffffffffffffff81358116916020013516610c25565b34801561029057600080fd5b50610176600480360360208110156102a757600080fd5b503573ffffffffffffffffffffffffffffffffffffffff16610c58565b60005473ffffffffffffffffffffffffffffffffffffffff1681565b60015473ffffffffffffffffffffffffffffffffffffffff1681565b6003818154811061030957fe5b60009182526020909120015473ffffffffffffffffffffffffffffffffffffffff16905081565b60005473ffffffffffffffffffffffffffffffffffffffff16331461035457600080fd5b73ffffffffffffffffffffffffffffffffffffffff83163014156104415760405160009073ffffffffffffffffffffffffffffffffffffffff84169083908381818185875af1925050503d80600081146103ca576040519150601f19603f3d011682016040523d82523d6000602084013e6103cf565b606091505b505090508061043f57604080517f08c379a000000000000000000000000000000000000000000000000000000000815260206004820152600760248201527f4661696c75726500000000000000000000000000000000000000000000000000604482015290519081900360640190fd5b505b604080518082018252601981527f7472616e7366657228616464726573732c75696e743235362900000000000000602091820152815173ffffffffffffffffffffffffffffffffffffffff85811660248301526044808301869052845180840390910181526064909201845291810180517bffffffffffffffffffffffffffffffffffffffffffffffffffffffff167fa9059cbb000000000000000000000000000000000000000000000000000000001781529251815160009460609489169392918291908083835b6020831061054757805182527fffffffffffffffffffffffffffffffffffffffffffffffffffffffffffffffe0909201916020918201910161050a565b6001836020036101000a0380198251168184511680821785525050505050509050019150506000604051808303816000865af19150503d80600081146105a9576040519150601f19603f3d011682016040523d82523d6000602084013e6105ae565b606091505b50915091508180156105dc5750805115806105dc57508080602001905160208110156105d957600080fd5b50515b61064757604080517f08c379a000000000000000000000000000000000000000000000000000000000815260206004820152601b60248201527f556e6973776170464c523a205452414e534645525f4641494c45440000000000604482015290519081900360640190fd5b5050505050565b60035490565b60405161066360208201610d25565b6020820181038252601f19601f820116604052506040516020018082805190602001908083835b602083106106c757805182527fffffffffffffffffffffffffffffffffffffffffffffffffffffffffffffffe0909201916020918201910161068a565b6001836020036101000a0380198251168184511680821785525050505050509050019150506040516020818303038152906040528051906020012081565b60015473ffffffffffffffffffffffffffffffffffffffff16331461078b57604080517f08c379a000000000000000000000000000000000000000000000000000000000815260206004820152601560248201527f556e6973776170464c523a20464f5242494444454e0000000000000000000000604482015290519081900360640190fd5b600180547fffffffffffffffffffffffff00000000000000000000000000000000000000001673ffffffffffffffffffffffffffffffffffffffff92909216919091179055565b60008173ffffffffffffffffffffffffffffffffffffffff168373ffffffffffffffffffffffffffffffffffffffff16141561086f57604080517f08c379a000000000000000000000000000000000000000000000000000000000815260206004820152601f60248201527f556e6973776170464c523a204944454e544943414c5f41444452455353455300604482015290519081900360640190fd5b6000808373ffffffffffffffffffffffffffffffffffffffff168573ffffffffffffffffffffffffffffffffffffffff16106108ac5783856108af565b84845b909250905073ffffffffffffffffffffffffffffffffffffffff821661093657604080517f08c379a000000000000000000000000000000000000000000000000000000000815260206004820152601760248201527f556e697377617056323a205a45524f5f41444452455353000000000000000000604482015290519081900360640190fd5b73ffffffffffffffffffffffffffffffffffffffff8281166000908152600260209081526040808320858516845290915290205416156109d757604080517f08c379a000000000000000000000000000000000000000000000000000000000815260206004820152601760248201527f556e6973776170464c523a20504149525f455849535453000000000000000000604482015290519081900360640190fd5b6060604051806020016109e990610d25565b6020820181038252601f19601f82011660405250905060008383604051602001808373ffffffffffffffffffffffffffffffffffffffff1673ffffffffffffffffffffffffffffffffffffffff1660601b81526014018273ffffffffffffffffffffffffffffffffffffffff1673ffffffffffffffffffffffffffffffffffffffff1660601b815260140192505050604051602081830303815290604052805190602001209050808251602084016000f5604080517f485cc95500000000000000000000000000000000000000000000000000000000815273ffffffffffffffffffffffffffffffffffffffff8781166004830152868116602483015291519297509087169163485cc9559160448082019260009290919082900301818387803b158015610b1657600080fd5b505af1158015610b2a573d6000803e3d6000fd5b5050505073ffffffffffffffffffffffffffffffffffffffff84811660008181526002602081815260408084208987168086529083528185208054978d167fffffffffffffffffffffffff000000000000000000000000000000000000000098891681179091559383528185208686528352818520805488168517905560038054600181018255958190527fc2575a0e9e593c00f959f8c92f12db2869c3395a3b0502d05e2516446f71f85b90950180549097168417909655925483519283529082015281517f0d3648bd0f6ba80134a33ba9275ac585d9d315f0ad8355cddefde31afa28d0e9929181900390910190a35050505092915050565b600260209081526000928352604080842090915290825290205473ffffffffffffffffffffffffffffffffffffffff1681565b60015473ffffffffffffffffffffffffffffffffffffffff163314610cde57604080517f08c379a000000000000000000000000000000000000000000000000000000000815260206004820152601560248201527f556e6973776170464c523a20464f5242494444454e0000000000000000000000604482015290519081900360640190fd5b600080547fffffffffffffffffffffffff00000000000000000000000000000000000000001673ffffffffffffffffffffffffffffffffffffffff92909216919091179055565b61302980610d338339019056fe60806040819052601060045580605262002fd78239604080519182900360520182208282018252601383527f4a6577656c53776170204c697175696469747900000000000000000000000000602093840152815180830183526001808252603160f81b918501919091526004548351808601939093527fe7133beba94d4a7b3131c35eff41881abe3bb7cc0f7265b3fca992c96a128176838501527fc89efdaa54c0f20c7adf612882df0950f5a951637e0307cdcb4c672f298b8bc6606084015260808301523060a0808401919091528351808403909101815260c08301808552815191860191909120600555600d91909155600654622fcfcb60e31b90915291516001600160a01b0392909216935063017e7e589260c4808301939192829003018186803b1580156200013257600080fd5b505afa15801562000147573d6000803e3d6000fd5b505050506040513d60208110156200015e57600080fd5b5051600e80546001600160a01b0319166001600160a01b039092169190911790553480156200018c57600080fd5b50600680546001600160a01b03191633179055612e2880620001af6000396000f3fe6080604052600436106101ac5760003560e01c80636a627842116100ec578063ba9a7a561161008a578063d21220a711610064578063d21220a7146107c5578063d505accf146107da578063dd62ed3e14610845578063fff6cae91461088d576101ac565b8063ba9a7a561461075b578063bc25cf7714610770578063c45a0155146107b0576101ac565b80637ecebe00116100c65780637ecebe001461066757806389afcb44146106a757806395d89b4114610700578063a9059cbb14610715576101ac565b80636a627842146105d257806370a08231146106125780637464fc3d14610652576101ac565b806323b872dd116101595780633644e515116101335780633644e5151461054b578063485cc955146105605780635909c0d5146105a85780635a3d5493146105bd576101ac565b806323b872dd146104bb57806330adf81f1461050b578063313ce56714610520576101ac565b8063095ea7b31161018a578063095ea7b3146103fc5780630dfe16811461045657806318160ddd14610494576101ac565b8063022c0d9f1461027e57806306fdde03146103265780630902f1ac146103b0575b60065460405160009173ffffffffffffffffffffffffffffffffffffffff169034908381818185875af1925050503d8060008114610206576040519150601f19603f3d011682016040523d82523d6000602084013e61020b565b606091505b505090508061027b57604080517f08c379a000000000000000000000000000000000000000000000000000000000815260206004820152600760248201527f4661696c75726500000000000000000000000000000000000000000000000000604482015290519081900360640190fd5b50005b34801561028a57600080fd5b50610324600480360360808110156102a157600080fd5b81359160208101359173ffffffffffffffffffffffffffffffffffffffff60408301351691908101906080810160608201356401000000008111156102e557600080fd5b8201836020820111156102f757600080fd5b8035906020019184600183028401116401000000008311171561031957600080fd5b5090925090506108a2565b005b34801561033257600080fd5b5061033b610f76565b6040805160208082528351818301528351919283929083019185019080838360005b8381101561037557818101518382015260200161035d565b50505050905090810190601f1680156103a25780820380516001836020036101000a031916815260200191505b509250505060405180910390f35b3480156103bc57600080fd5b506103c5610faf565b604080516dffffffffffffffffffffffffffff948516815292909316602083015263ffffffff168183015290519081900360600190f35b34801561040857600080fd5b506104426004803603604081101561041f57600080fd5b5073ffffffffffffffffffffffffffffffffffffffff8135169060200135611004565b604080519115158252519081900360200190f35b34801561046257600080fd5b5061046b61101b565b6040805173ffffffffffffffffffffffffffffffffffffffff9092168252519081900360200190f35b3480156104a057600080fd5b506104a9611037565b60408051918252519081900360200190f35b3480156104c757600080fd5b50610442600480360360608110156104de57600080fd5b5073ffffffffffffffffffffffffffffffffffffffff81358116916020810135909116906040013561103d565b34801561051757600080fd5b506104a961111c565b34801561052c57600080fd5b50610535611137565b6040805160ff9092168252519081900360200190f35b34801561055757600080fd5b506104a961113c565b34801561056c57600080fd5b506103246004803603604081101561058357600080fd5b5073ffffffffffffffffffffffffffffffffffffffff81358116916020013516611142565b3480156105b457600080fd5b506104a961121b565b3480156105c957600080fd5b506104a9611221565b3480156105de57600080fd5b506104a9600480360360208110156105f557600080fd5b503573ffffffffffffffffffffffffffffffffffffffff16611227565b34801561061e57600080fd5b506104a96004803603602081101561063557600080fd5b503573ffffffffffffffffffffffffffffffffffffffff166115f0565b34801561065e57600080fd5b506104a9611602565b34801561067357600080fd5b506104a96004803603602081101561068a57600080fd5b503573ffffffffffffffffffffffffffffffffffffffff16611608565b3480156106b357600080fd5b506106e7600480360360208110156106ca57600080fd5b503573ffffffffffffffffffffffffffffffffffffffff1661161a565b6040805192835260208301919091528051918290030190f35b34801561070c57600080fd5b5061033b611acf565b34801561072157600080fd5b506104426004803603604081101561073857600080fd5b5073ffffffffffffffffffffffffffffffffffffffff8135169060200135611b08565b34801561076757600080fd5b506104a9611b15565b34801561077c57600080fd5b506103246004803603602081101561079357600080fd5b503573ffffffffffffffffffffffffffffffffffffffff16611b20565b3480156107bc57600080fd5b5061046b611d16565b3480156107d157600080fd5b5061046b611d32565b3480156107e657600080fd5b50610324600480360360e08110156107fd57600080fd5b5073ffffffffffffffffffffffffffffffffffffffff813581169160208101359091169060408101359060608101359060ff6080820135169060a08101359060c00135611d4e565b34801561085157600080fd5b506104a96004803603604081101561086857600080fd5b5073ffffffffffffffffffffffffffffffffffffffff8135811691602001351661201b565b34801561089957600080fd5b50610324612038565b600d5460011461091357604080517f08c379a000000000000000000000000000000000000000000000000000000000815260206004820152601160248201527f556e697377617056323a204c4f434b4544000000000000000000000000000000604482015290519081900360640190fd5b6000600d55841515806109265750600084115b61097b576040517f08c379a0000000000000000000000000000000000000000000000000000000008152600401808060200182810382526026815260200180612dce6026913960400191505060405180910390fd5b600080610986610faf565b5091509150816dffffffffffffffffffffffffffff16871080156109b95750806dffffffffffffffffffffffffffff1686105b610a0e576040517f08c379a0000000000000000000000000000000000000000000000000000000008152600401808060200182810382526021815260200180612d0d6021913960400191505060405180910390fd5b600754600854600091829173ffffffffffffffffffffffffffffffffffffffff918216919081169089168214801590610a7357508073ffffffffffffffffffffffffffffffffffffffff168973ffffffffffffffffffffffffffffffffffffffff1614155b610ade57604080517f08c379a000000000000000000000000000000000000000000000000000000000815260206004820152601660248201527f556e6973776170464c523a20494e56414c49445f544f00000000000000000000604482015290519081900360640190fd5b8a15610aef57610aef828a8d61221e565b8915610b0057610b00818a8c61221e565b8615610be2578873ffffffffffffffffffffffffffffffffffffffff166310d1e85c338d8d8c8c6040518663ffffffff1660e01b8152600401808673ffffffffffffffffffffffffffffffffffffffff1673ffffffffffffffffffffffffffffffffffffffff168152602001858152602001848152602001806020018281038252848482818152602001925080828437600081840152601f19601f8201169050808301925050509650505050505050600060405180830381600087803b158015610bc957600080fd5b505af1158015610bdd573d6000803e3d6000fd5b505050505b604080517f70a08231000000000000000000000000000000000000000000000000000000008152306004820152905173ffffffffffffffffffffffffffffffffffffffff8416916370a08231916024808301926020929190829003018186803b158015610c4e57600080fd5b505afa158015610c62573d6000803e3d6000fd5b505050506040513d6020811015610c7857600080fd5b5051604080517f70a08231000000000000000000000000000000000000000000000000000000008152306004820152905191955073ffffffffffffffffffffffffffffffffffffffff8316916370a0823191602480820192602092909190829003018186803b158015610cea57600080fd5b505afa158015610cfe573d6000803e3d6000fd5b505050506040513d6020811015610d1457600080fd5b5051925060009150506dffffffffffffffffffffffffffff85168a90038311610d3e576000610d54565b89856dffffffffffffffffffffffffffff160383035b9050600089856dffffffffffffffffffffffffffff16038311610d78576000610d8e565b89856dffffffffffffffffffffffffffff160383035b90506000821180610d9f5750600081115b610df4576040517f08c379a0000000000000000000000000000000000000000000000000000000008152600401808060200182810382526025815260200180612da96025913960400191505060405180910390fd5b6000610e28610e0a84600363ffffffff61242b16565b610e1c876103e863ffffffff61242b16565b9063ffffffff6124b116565b90506000610e40610e0a84600363ffffffff61242b16565b9050610e78620f4240610e6c6dffffffffffffffffffffffffffff8b8116908b1663ffffffff61242b16565b9063ffffffff61242b16565b610e88838363ffffffff61242b16565b1015610ef557604080517f08c379a000000000000000000000000000000000000000000000000000000000815260206004820152600d60248201527f556e6973776170464c523a204b00000000000000000000000000000000000000604482015290519081900360640190fd5b5050610f0384848888612523565b60408051838152602081018390528082018d9052606081018c9052905173ffffffffffffffffffffffffffffffffffffffff8b169133917fd78ad95fa46c994b6551d0da85fc275fe613ce37657fb8d5e3d130840159d8229181900360800190a350506001600d55505050505050505050565b6040518060400160405280601381526020017f4a6577656c53776170204c69717569646974790000000000000000000000000081525081565b6009546dffffffffffffffffffffffffffff808216926e0100000000000000000000000000008304909116917c0100000000000000000000000000000000000000000000000000000000900463ffffffff1690565b60006110113384846127df565b5060015b92915050565b60075473ffffffffffffffffffffffffffffffffffffffff1681565b60005481565b73ffffffffffffffffffffffffffffffffffffffff831660009081526002602090815260408083203384529091528120547fffffffffffffffffffffffffffffffffffffffffffffffffffffffffffffffff146111075773ffffffffffffffffffffffffffffffffffffffff841660009081526002602090815260408083203384529091529020546110d5908363ffffffff6124b116565b73ffffffffffffffffffffffffffffffffffffffff851660009081526002602090815260408083203384529091529020555b61111284848461284e565b5060019392505050565b604051806052612d2e82396052019050604051809103902081565b601281565b60055481565b60065473ffffffffffffffffffffffffffffffffffffffff1633146111c857604080517f08c379a000000000000000000000000000000000000000000000000000000000815260206004820152601560248201527f556e6973776170464c523a20464f5242494444454e0000000000000000000000604482015290519081900360640190fd5b6007805473ffffffffffffffffffffffffffffffffffffffff9384167fffffffffffffffffffffffff00000000000000000000000000000000000000009182161790915560088054929093169116179055565b600a5481565b600b5481565b6000600d5460011461129a57604080517f08c379a000000000000000000000000000000000000000000000000000000000815260206004820152601160248201527f556e697377617056323a204c4f434b4544000000000000000000000000000000604482015290519081900360640190fd5b6000600d819055806112aa610faf565b50600754604080517f70a08231000000000000000000000000000000000000000000000000000000008152306004820152905193955091935060009273ffffffffffffffffffffffffffffffffffffffff909116916370a08231916024808301926020929190829003018186803b15801561132457600080fd5b505afa158015611338573d6000803e3d6000fd5b505050506040513d602081101561134e57600080fd5b5051600854604080517f70a08231000000000000000000000000000000000000000000000000000000008152306004820152905192935060009273ffffffffffffffffffffffffffffffffffffffff909216916370a0823191602480820192602092909190829003018186803b1580156113c757600080fd5b505afa1580156113db573d6000803e3d6000fd5b505050506040513d60208110156113f157600080fd5b505190506000611417836dffffffffffffffffffffffffffff871663ffffffff6124b116565b9050600061143b836dffffffffffffffffffffffffffff871663ffffffff6124b116565b6000549091508061149b5761146966038d7ea4c68000610e1c611464868663ffffffff61242b16565b61292f565b600e549098506114969073ffffffffffffffffffffffffffffffffffffffff1666038d7ea4c68000612981565b6114f8565b6114f56dffffffffffffffffffffffffffff88166114bf858463ffffffff61242b16565b816114c657fe5b046dffffffffffffffffffffffffffff88166114e8858563ffffffff61242b16565b816114ef57fe5b04612a31565b97505b60008811611551576040517f08c379a0000000000000000000000000000000000000000000000000000000008152600401808060200182810382526029815260200180612ce46029913960400191505060405180910390fd5b6000611565896103e863ffffffff612a4916565b600e5490915061158b9073ffffffffffffffffffffffffffffffffffffffff1682612981565b6115978a828b03612981565b6115a386868a8a612523565b6040805185815260208101859052815133927f4c209b5fc8ad50758f13e2e1088ba56a560dff690a1c6fef26394f4c03821c4f928290030190a250506001600d5550949695505050505050565b60016020526000908152604090205481565b600c5481565b60036020526000908152604090205481565b600080600d5460011461168e57604080517f08c379a000000000000000000000000000000000000000000000000000000000815260206004820152601160248201527f556e697377617056323a204c4f434b4544000000000000000000000000000000604482015290519081900360640190fd5b6000600d8190558061169e610faf565b50600754600854604080517f70a08231000000000000000000000000000000000000000000000000000000008152306004820152905194965092945073ffffffffffffffffffffffffffffffffffffffff9182169391169160009184916370a08231916024808301926020929190829003018186803b15801561172057600080fd5b505afa158015611734573d6000803e3d6000fd5b505050506040513d602081101561174a57600080fd5b5051604080517f70a08231000000000000000000000000000000000000000000000000000000008152306004820152905191925060009173ffffffffffffffffffffffffffffffffffffffff8516916370a08231916024808301926020929190829003018186803b1580156117be57600080fd5b505afa1580156117d2573d6000803e3d6000fd5b505050506040513d60208110156117e857600080fd5b50513060009081526001602052604081205491925061180f826103e863ffffffff612a4916565b90506000611823838363ffffffff6124b116565b6000549091508061183a838863ffffffff61242b16565b8161184157fe5b049b5080611855838763ffffffff61242b16565b8161185c57fe5b049a5060008c11801561186f575060008b115b6118c4576040517f08c379a0000000000000000000000000000000000000000000000000000000008152600401808060200182810382526029815260200180612d806029913960400191505060405180910390fd5b600e546118e990309073ffffffffffffffffffffffffffffffffffffffff168561221e565b6118f33083612a8b565b6118fe888e8e61221e565b611909878e8d61221e565b604080517f70a08231000000000000000000000000000000000000000000000000000000008152306004820152905173ffffffffffffffffffffffffffffffffffffffff8a16916370a08231916024808301926020929190829003018186803b15801561197557600080fd5b505afa158015611989573d6000803e3d6000fd5b505050506040513d602081101561199f57600080fd5b5051604080517f70a08231000000000000000000000000000000000000000000000000000000008152306004820152905191975073ffffffffffffffffffffffffffffffffffffffff8916916370a0823191602480820192602092909190829003018186803b158015611a1157600080fd5b505afa158015611a25573d6000803e3d6000fd5b505050506040513d6020811015611a3b57600080fd5b50519450611a4b86868c8c612523565b8c73ffffffffffffffffffffffffffffffffffffffff163373ffffffffffffffffffffffffffffffffffffffff167fdccd412f0b1252819cb1fd330b93224ca42612892bb3f4f789976e6d819364968e8e604051808381526020018281526020019250505060405180910390a3505050505050505050506001600d81905550915091565b6040518060400160405280600981526020017f4a6577656c2d4c5073000000000000000000000000000000000000000000000081525081565b600061101133848461284e565b66038d7ea4c6800081565b600d54600114611b9157604080517f08c379a000000000000000000000000000000000000000000000000000000000815260206004820152601160248201527f556e697377617056323a204c4f434b4544000000000000000000000000000000604482015290519081900360640190fd5b6000600d55600754600854600954604080517f70a08231000000000000000000000000000000000000000000000000000000008152306004820152905173ffffffffffffffffffffffffffffffffffffffff9485169490931692611c6d9285928792611c68926dffffffffffffffffffffffffffff169185916370a0823191602480820192602092909190829003018186803b158015611c3057600080fd5b505afa158015611c44573d6000803e3d6000fd5b505050506040513d6020811015611c5a57600080fd5b50519063ffffffff6124b116565b61221e565b600954604080517f70a082310000000000000000000000000000000000000000000000000000000081523060048201529051611d0c9284928792611c68926e01000000000000000000000000000090046dffffffffffffffffffffffffffff169173ffffffffffffffffffffffffffffffffffffffff8616916370a0823191602480820192602092909190829003018186803b158015611c3057600080fd5b50506001600d5550565b60065473ffffffffffffffffffffffffffffffffffffffff1681565b60085473ffffffffffffffffffffffffffffffffffffffff1681565b42841015611dbd57604080517f08c379a000000000000000000000000000000000000000000000000000000000815260206004820152601360248201527f556e6973776170464c523a204558504952454400000000000000000000000000604482015290519081900360640190fd5b60006005546040518080612d2e605291396040805191829003605201822073ffffffffffffffffffffffffffffffffffffffff808e16600081815260036020908152858220805460018082019092558289019690965287870193909352928f166060870152608086018e905260a086019390935260c08086018d90528451808703909101815260e0860185528051908301207f19010000000000000000000000000000000000000000000000000000000000006101008701526101028601979097526101228086019790975283518086039097018752610142850180855287519783019790972096839052610162850180855287905260ff8b166101828601526101a285018a90526101c28501899052925195965090949193506101e28084019391927fffffffffffffffffffffffffffffffffffffffffffffffffffffffffffffffe081019281900390910190855afa158015611f1f573d6000803e3d6000fd5b50506040517fffffffffffffffffffffffffffffffffffffffffffffffffffffffffffffffe0015191505073ffffffffffffffffffffffffffffffffffffffff811615801590611f9a57508873ffffffffffffffffffffffffffffffffffffffff168173ffffffffffffffffffffffffffffffffffffffff16145b61200557604080517f08c379a000000000000000000000000000000000000000000000000000000000815260206004820152601d60248201527f556e6973776170464c523a20494e56414c49445f5349474e4154555245000000604482015290519081900360640190fd5b6120108989896127df565b505050505050505050565b600260209081526000928352604080842090915290825290205481565b600d546001146120a957604080517f08c379a000000000000000000000000000000000000000000000000000000000815260206004820152601160248201527f556e697377617056323a204c4f434b4544000000000000000000000000000000604482015290519081900360640190fd5b6000600d55600754604080517f70a0823100000000000000000000000000000000000000000000000000000000815230600482015290516122179273ffffffffffffffffffffffffffffffffffffffff16916370a08231916024808301926020929190829003018186803b15801561212057600080fd5b505afa158015612134573d6000803e3d6000fd5b505050506040513d602081101561214a57600080fd5b5051600854604080517f70a08231000000000000000000000000000000000000000000000000000000008152306004820152905173ffffffffffffffffffffffffffffffffffffffff909216916370a0823191602480820192602092909190829003018186803b1580156121bd57600080fd5b505afa1580156121d1573d6000803e3d6000fd5b505050506040513d60208110156121e757600080fd5b50516009546dffffffffffffffffffffffffffff808216916e010000000000000000000000000000900416612523565b6001600d55565b604080518082018252601981527f7472616e7366657228616464726573732c75696e743235362900000000000000602091820152815173ffffffffffffffffffffffffffffffffffffffff85811660248301526044808301869052845180840390910181526064909201845291810180517bffffffffffffffffffffffffffffffffffffffffffffffffffffffff167fa9059cbb000000000000000000000000000000000000000000000000000000001781529251815160009460609489169392918291908083835b6020831061232457805182527fffffffffffffffffffffffffffffffffffffffffffffffffffffffffffffffe090920191602091820191016122e7565b6001836020036101000a0380198251168184511680821785525050505050509050019150506000604051808303816000865af19150503d8060008114612386576040519150601f19603f3d011682016040523d82523d6000602084013e61238b565b606091505b50915091508180156123b95750805115806123b957508080602001905160208110156123b657600080fd5b50515b61242457604080517f08c379a000000000000000000000000000000000000000000000000000000000815260206004820152601b60248201527f556e6973776170464c523a205452414e534645525f4641494c45440000000000604482015290519081900360640190fd5b5050505050565b60008115806124465750508082028282828161244357fe5b04145b61101557604080517f08c379a000000000000000000000000000000000000000000000000000000000815260206004820152601460248201527f64732d6d6174682d6d756c2d6f766572666c6f77000000000000000000000000604482015290519081900360640190fd5b8082038281111561101557604080517f08c379a000000000000000000000000000000000000000000000000000000000815260206004820152601560248201527f64732d6d6174682d7375622d756e646572666c6f770000000000000000000000604482015290519081900360640190fd5b6dffffffffffffffffffffffffffff841180159061254f57506dffffffffffffffffffffffffffff8311155b6125ba57604080517f08c379a000000000000000000000000000000000000000000000000000000000815260206004820152601460248201527f556e6973776170464c523a204f564552464c4f57000000000000000000000000604482015290519081900360640190fd5b60095463ffffffff428116917c01000000000000000000000000000000000000000000000000000000009004811682039081161580159061260a57506dffffffffffffffffffffffffffff841615155b801561262557506dffffffffffffffffffffffffffff831615155b156126d5578063ffffffff166126688561263e86612b50565b7bffffffffffffffffffffffffffffffffffffffffffffffffffffffff169063ffffffff612b7416565b600a80547bffffffffffffffffffffffffffffffffffffffffffffffffffffffff929092169290920201905563ffffffff81166126a88461263e87612b50565b600b80547bffffffffffffffffffffffffffffffffffffffffffffffffffffffff92909216929092020190555b600980547fffffffffffffffffffffffffffffffffffff0000000000000000000000000000166dffffffffffffffffffffffffffff888116919091177fffffffff0000000000000000000000000000ffffffffffffffffffffffffffff166e0100000000000000000000000000008883168102919091177bffffffffffffffffffffffffffffffffffffffffffffffffffffffff167c010000000000000000000000000000000000000000000000000000000063ffffffff871602179283905560408051848416815291909304909116602082015281517f1c411e9a96e071241c2f21f7726b17ae89e3cab4c78be50e062b03a9fffbbad1929181900390910190a1505050505050565b73ffffffffffffffffffffffffffffffffffffffff808416600081815260026020908152604080832094871680845294825291829020859055815185815291517f8c5be1e5ebec7d5bd14f71427d1e84f3dd0314c0f7b2291e5b200ac8c7c3b9259281900390910190a3505050565b73ffffffffffffffffffffffffffffffffffffffff8316600090815260016020526040902054612884908263ffffffff6124b116565b73ffffffffffffffffffffffffffffffffffffffff80851660009081526001602052604080822093909355908416815220546128c6908263ffffffff612bb516565b73ffffffffffffffffffffffffffffffffffffffff80841660008181526001602090815260409182902094909455805185815290519193928716927fddf252ad1be2c89b69c2b068fc378daa952ba7f163c4a11628f55a4df523b3ef92918290030190a3505050565b60006003821115612972575080600160028204015b8181101561296c5780915060028182858161295b57fe5b04018161296457fe5b049050612944565b5061297c565b811561297c575060015b919050565b600054612994908263ffffffff612bb516565b600090815573ffffffffffffffffffffffffffffffffffffffff83168152600160205260409020546129cc908263ffffffff612bb516565b73ffffffffffffffffffffffffffffffffffffffff831660008181526001602090815260408083209490945583518581529351929391927fddf252ad1be2c89b69c2b068fc378daa952ba7f163c4a11628f55a4df523b3ef9281900390910190a35050565b6000818310612a405781612a42565b825b9392505050565b6000612a4283836040518060400160405280601a81526020017f536166654d6174683a206469766973696f6e206279207a65726f000000000000815250612c27565b73ffffffffffffffffffffffffffffffffffffffff8216600090815260016020526040902054612ac1908263ffffffff6124b116565b73ffffffffffffffffffffffffffffffffffffffff831660009081526001602052604081209190915554612afb908263ffffffff6124b116565b600090815560408051838152905173ffffffffffffffffffffffffffffffffffffffff8516917fddf252ad1be2c89b69c2b068fc378daa952ba7f163c4a11628f55a4df523b3ef919081900360200190a35050565b6dffffffffffffffffffffffffffff166e0100000000000000000000000000000290565b60006dffffffffffffffffffffffffffff82167bffffffffffffffffffffffffffffffffffffffffffffffffffffffff841681612bad57fe5b049392505050565b8082018281101561101557604080517f08c379a000000000000000000000000000000000000000000000000000000000815260206004820152601460248201527f64732d6d6174682d6164642d6f766572666c6f77000000000000000000000000604482015290519081900360640190fd5b60008183612ccd576040517f08c379a00000000000000000000000000000000000000000000000000000000081526004018080602001828103825283818151815260200191508051906020019080838360005b83811015612c92578181015183820152602001612c7a565b50505050905090810190601f168015612cbf5780820380516001836020036101000a031916815260200191505b509250505060405180910390fd5b506000838581612cd957fe5b049594505050505056fe556e6973776170464c523a20494e53554646494349454e545f4c49515549444954595f4d494e544544556e697377617056323a20494e53554646494349454e545f4c49515549444954595065726d69742861646472657373206f776e65722c61646472657373207370656e6465722c75696e743235362076616c75652c75696e74323536206e6f6e63652c75696e7432353620646561646c696e6529556e6973776170464c523a20494e53554646494349454e545f4c49515549444954595f4255524e4544556e6973776170464c523a20494e53554646494349454e545f494e5055545f414d4f554e54556e6973776170464c523a20494e53554646494349454e545f4f55545055545f414d4f554e54a265627a7a72315820323e5c5ccabf1044bc0b834b61406f109f559ce93de65165ff31e31d57e6bf1664736f6c63430005100032454950373132446f6d61696e28737472696e67206e616d652c737472696e672076657273696f6e2c75696e7432353620636861696e49642c6164647265737320766572696679696e67436f6e747261637429a265627a7a72315820446c24cb0453b932d93c35ac039f5fba71c40b472621e077d52b31d845efbacd64736f6c63430005100032",
      "opcodes": "PUSH1 0x80 PUSH1 0x40 MSTORE CALLVALUE DUP1 ISZERO PUSH2 0x10 JUMPI PUSH1 0x0 DUP1 REVERT JUMPDEST POP PUSH1 0x1 DUP1 SLOAD PUSH1 0x1 PUSH1 0x1 PUSH1 0xA0 SHL SUB NOT SWAP1 DUP2 AND CALLER SWAP1 DUP2 OR SWAP1 SWAP3 SSTORE PUSH1 0x0 DUP1 SLOAD SWAP1 SWAP2 AND SWAP1 SWAP2 OR SWAP1 SSTORE PUSH2 0x3D90 DUP1 PUSH2 0x43 PUSH1 0x0 CODECOPY PUSH1 0x0 RETURN INVALID PUSH1 0x80 PUSH1 0x40 MSTORE PUSH1 0x4 CALLDATASIZE LT PUSH2 0xB1 JUMPI PUSH1 0x0 CALLDATALOAD PUSH1 0xE0 SHR DUP1 PUSH4 0x5855A25A GT PUSH2 0x69 JUMPI DUP1 PUSH4 0xC9C65396 GT PUSH2 0x4E JUMPI DUP1 PUSH4 0xC9C65396 EQ PUSH2 0x1F4 JUMPI DUP1 PUSH4 0xE6A43905 EQ PUSH2 0x23C JUMPI DUP1 PUSH4 0xF46901ED EQ PUSH2 0x284 JUMPI PUSH2 0xB1 JUMP JUMPDEST DUP1 PUSH4 0x5855A25A EQ PUSH2 0x19F JUMPI DUP1 PUSH4 0xA2E74AF6 EQ PUSH2 0x1B4 JUMPI PUSH2 0xB1 JUMP JUMPDEST DUP1 PUSH4 0x1E3DD18B GT PUSH2 0x9A JUMPI DUP1 PUSH4 0x1E3DD18B EQ PUSH2 0x109 JUMPI DUP1 PUSH4 0x26E6CDDE EQ PUSH2 0x133 JUMPI DUP1 PUSH4 0x574F2BA3 EQ PUSH2 0x178 JUMPI PUSH2 0xB1 JUMP JUMPDEST DUP1 PUSH4 0x17E7E58 EQ PUSH2 0xB6 JUMPI DUP1 PUSH4 0x94B7415 EQ PUSH2 0xF4 JUMPI JUMPDEST PUSH1 0x0 DUP1 REVERT JUMPDEST CALLVALUE DUP1 ISZERO PUSH2 0xC2 JUMPI PUSH1 0x0 DUP1 REVERT JUMPDEST POP PUSH2 0xCB PUSH2 0x2C4 JUMP JUMPDEST PUSH1 0x40 DUP1 MLOAD PUSH20 0xFFFFFFFFFFFFFFFFFFFFFFFFFFFFFFFFFFFFFFFF SWAP1 SWAP3 AND DUP3 MSTORE MLOAD SWAP1 DUP2 SWAP1 SUB PUSH1 0x20 ADD SWAP1 RETURN JUMPDEST CALLVALUE DUP1 ISZERO PUSH2 0x100 JUMPI PUSH1 0x0 DUP1 REVERT JUMPDEST POP PUSH2 0xCB PUSH2 0x2E0 JUMP JUMPDEST CALLVALUE DUP1 ISZERO PUSH2 0x115 JUMPI PUSH1 0x0 DUP1 REVERT JUMPDEST POP PUSH2 0xCB PUSH1 0x4 DUP1 CALLDATASIZE SUB PUSH1 0x20 DUP2 LT ISZERO PUSH2 0x12C JUMPI PUSH1 0x0 DUP1 REVERT JUMPDEST POP CALLDATALOAD PUSH2 0x2FC JUMP JUMPDEST PUSH2 0x176 PUSH1 0x4 DUP1 CALLDATASIZE SUB PUSH1 0x60 DUP2 LT ISZERO PUSH2 0x149 JUMPI PUSH1 0x0 DUP1 REVERT JUMPDEST POP PUSH20 0xFFFFFFFFFFFFFFFFFFFFFFFFFFFFFFFFFFFFFFFF DUP2 CALLDATALOAD DUP2 AND SWAP2 PUSH1 0x20 DUP2 ADD CALLDATALOAD SWAP1 SWAP2 AND SWAP1 PUSH1 0x40 ADD CALLDATALOAD PUSH2 0x330 JUMP JUMPDEST STOP JUMPDEST CALLVALUE DUP1 ISZERO PUSH2 0x184 JUMPI PUSH1 0x0 DUP1 REVERT JUMPDEST POP PUSH2 0x18D PUSH2 0x64E JUMP JUMPDEST PUSH1 0x40 DUP1 MLOAD SWAP2 DUP3 MSTORE MLOAD SWAP1 DUP2 SWAP1 SUB PUSH1 0x20 ADD SWAP1 RETURN JUMPDEST CALLVALUE DUP1 ISZERO PUSH2 0x1AB JUMPI PUSH1 0x0 DUP1 REVERT JUMPDEST POP PUSH2 0x18D PUSH2 0x654 JUMP JUMPDEST CALLVALUE DUP1 ISZERO PUSH2 0x1C0 JUMPI PUSH1 0x0 DUP1 REVERT JUMPDEST POP PUSH2 0x176 PUSH1 0x4 DUP1 CALLDATASIZE SUB PUSH1 0x20 DUP2 LT ISZERO PUSH2 0x1D7 JUMPI PUSH1 0x0 DUP1 REVERT JUMPDEST POP CALLDATALOAD PUSH20 0xFFFFFFFFFFFFFFFFFFFFFFFFFFFFFFFFFFFFFFFF AND PUSH2 0x705 JUMP JUMPDEST CALLVALUE DUP1 ISZERO PUSH2 0x200 JUMPI PUSH1 0x0 DUP1 REVERT JUMPDEST POP PUSH2 0xCB PUSH1 0x4 DUP1 CALLDATASIZE SUB PUSH1 0x40 DUP2 LT ISZERO PUSH2 0x217 JUMPI PUSH1 0x0 DUP1 REVERT JUMPDEST POP PUSH20 0xFFFFFFFFFFFFFFFFFFFFFFFFFFFFFFFFFFFFFFFF DUP2 CALLDATALOAD DUP2 AND SWAP2 PUSH1 0x20 ADD CALLDATALOAD AND PUSH2 0x7D2 JUMP JUMPDEST CALLVALUE DUP1 ISZERO PUSH2 0x248 JUMPI PUSH1 0x0 DUP1 REVERT JUMPDEST POP PUSH2 0xCB PUSH1 0x4 DUP1 CALLDATASIZE SUB PUSH1 0x40 DUP2 LT ISZERO PUSH2 0x25F JUMPI PUSH1 0x0 DUP1 REVERT JUMPDEST POP PUSH20 0xFFFFFFFFFFFFFFFFFFFFFFFFFFFFFFFFFFFFFFFF DUP2 CALLDATALOAD DUP2 AND SWAP2 PUSH1 0x20 ADD CALLDATALOAD AND PUSH2 0xC25 JUMP JUMPDEST CALLVALUE DUP1 ISZERO PUSH2 0x290 JUMPI PUSH1 0x0 DUP1 REVERT JUMPDEST POP PUSH2 0x176 PUSH1 0x4 DUP1 CALLDATASIZE SUB PUSH1 0x20 DUP2 LT ISZERO PUSH2 0x2A7 JUMPI PUSH1 0x0 DUP1 REVERT JUMPDEST POP CALLDATALOAD PUSH20 0xFFFFFFFFFFFFFFFFFFFFFFFFFFFFFFFFFFFFFFFF AND PUSH2 0xC58 JUMP JUMPDEST PUSH1 0x0 SLOAD PUSH20 0xFFFFFFFFFFFFFFFFFFFFFFFFFFFFFFFFFFFFFFFF AND DUP2 JUMP JUMPDEST PUSH1 0x1 SLOAD PUSH20 0xFFFFFFFFFFFFFFFFFFFFFFFFFFFFFFFFFFFFFFFF AND DUP2 JUMP JUMPDEST PUSH1 0x3 DUP2 DUP2 SLOAD DUP2 LT PUSH2 0x309 JUMPI INVALID JUMPDEST PUSH1 0x0 SWAP2 DUP3 MSTORE PUSH1 0x20 SWAP1 SWAP2 KECCAK256 ADD SLOAD PUSH20 0xFFFFFFFFFFFFFFFFFFFFFFFFFFFFFFFFFFFFFFFF AND SWAP1 POP DUP2 JUMP JUMPDEST PUSH1 0x0 SLOAD PUSH20 0xFFFFFFFFFFFFFFFFFFFFFFFFFFFFFFFFFFFFFFFF AND CALLER EQ PUSH2 0x354 JUMPI PUSH1 0x0 DUP1 REVERT JUMPDEST PUSH20 0xFFFFFFFFFFFFFFFFFFFFFFFFFFFFFFFFFFFFFFFF DUP4 AND ADDRESS EQ ISZERO PUSH2 0x441 JUMPI PUSH1 0x40 MLOAD PUSH1 0x0 SWAP1 PUSH20 0xFFFFFFFFFFFFFFFFFFFFFFFFFFFFFFFFFFFFFFFF DUP5 AND SWAP1 DUP4 SWAP1 DUP4 DUP2 DUP2 DUP2 DUP6 DUP8 GAS CALL SWAP3 POP POP POP RETURNDATASIZE DUP1 PUSH1 0x0 DUP2 EQ PUSH2 0x3CA JUMPI PUSH1 0x40 MLOAD SWAP2 POP PUSH1 0x1F NOT PUSH1 0x3F RETURNDATASIZE ADD AND DUP3 ADD PUSH1 0x40 MSTORE RETURNDATASIZE DUP3 MSTORE RETURNDATASIZE PUSH1 0x0 PUSH1 0x20 DUP5 ADD RETURNDATACOPY PUSH2 0x3CF JUMP JUMPDEST PUSH1 0x60 SWAP2 POP JUMPDEST POP POP SWAP1 POP DUP1 PUSH2 0x43F JUMPI PUSH1 0x40 DUP1 MLOAD PUSH32 0x8C379A000000000000000000000000000000000000000000000000000000000 DUP2 MSTORE PUSH1 0x20 PUSH1 0x4 DUP3 ADD MSTORE PUSH1 0x7 PUSH1 0x24 DUP3 ADD MSTORE PUSH32 0x4661696C75726500000000000000000000000000000000000000000000000000 PUSH1 0x44 DUP3 ADD MSTORE SWAP1 MLOAD SWAP1 DUP2 SWAP1 SUB PUSH1 0x64 ADD SWAP1 REVERT JUMPDEST POP JUMPDEST PUSH1 0x40 DUP1 MLOAD DUP1 DUP3 ADD DUP3 MSTORE PUSH1 0x19 DUP2 MSTORE PUSH32 0x7472616E7366657228616464726573732C75696E743235362900000000000000 PUSH1 0x20 SWAP2 DUP3 ADD MSTORE DUP2 MLOAD PUSH20 0xFFFFFFFFFFFFFFFFFFFFFFFFFFFFFFFFFFFFFFFF DUP6 DUP2 AND PUSH1 0x24 DUP4 ADD MSTORE PUSH1 0x44 DUP1 DUP4 ADD DUP7 SWAP1 MSTORE DUP5 MLOAD DUP1 DUP5 SUB SWAP1 SWAP2 ADD DUP2 MSTORE PUSH1 0x64 SWAP1 SWAP3 ADD DUP5 MSTORE SWAP2 DUP2 ADD DUP1 MLOAD PUSH28 0xFFFFFFFFFFFFFFFFFFFFFFFFFFFFFFFFFFFFFFFFFFFFFFFFFFFFFFFF AND PUSH32 0xA9059CBB00000000000000000000000000000000000000000000000000000000 OR DUP2 MSTORE SWAP3 MLOAD DUP2 MLOAD PUSH1 0x0 SWAP5 PUSH1 0x60 SWAP5 DUP10 AND SWAP4 SWAP3 SWAP2 DUP3 SWAP2 SWAP1 DUP1 DUP4 DUP4 JUMPDEST PUSH1 0x20 DUP4 LT PUSH2 0x547 JUMPI DUP1 MLOAD DUP3 MSTORE PUSH32 0xFFFFFFFFFFFFFFFFFFFFFFFFFFFFFFFFFFFFFFFFFFFFFFFFFFFFFFFFFFFFFFE0 SWAP1 SWAP3 ADD SWAP2 PUSH1 0x20 SWAP2 DUP3 ADD SWAP2 ADD PUSH2 0x50A JUMP JUMPDEST PUSH1 0x1 DUP4 PUSH1 0x20 SUB PUSH2 0x100 EXP SUB DUP1 NOT DUP3 MLOAD AND DUP2 DUP5 MLOAD AND DUP1 DUP3 OR DUP6 MSTORE POP POP POP POP POP POP SWAP1 POP ADD SWAP2 POP POP PUSH1 0x0 PUSH1 0x40 MLOAD DUP1 DUP4 SUB DUP2 PUSH1 0x0 DUP7 GAS CALL SWAP2 POP POP RETURNDATASIZE DUP1 PUSH1 0x0 DUP2 EQ PUSH2 0x5A9 JUMPI PUSH1 0x40 MLOAD SWAP2 POP PUSH1 0x1F NOT PUSH1 0x3F RETURNDATASIZE ADD AND DUP3 ADD PUSH1 0x40 MSTORE RETURNDATASIZE DUP3 MSTORE RETURNDATASIZE PUSH1 0x0 PUSH1 0x20 DUP5 ADD RETURNDATACOPY PUSH2 0x5AE JUMP JUMPDEST PUSH1 0x60 SWAP2 POP JUMPDEST POP SWAP2 POP SWAP2 POP DUP2 DUP1 ISZERO PUSH2 0x5DC JUMPI POP DUP1 MLOAD ISZERO DUP1 PUSH2 0x5DC JUMPI POP DUP1 DUP1 PUSH1 0x20 ADD SWAP1 MLOAD PUSH1 0x20 DUP2 LT ISZERO PUSH2 0x5D9 JUMPI PUSH1 0x0 DUP1 REVERT JUMPDEST POP MLOAD JUMPDEST PUSH2 0x647 JUMPI PUSH1 0x40 DUP1 MLOAD PUSH32 0x8C379A000000000000000000000000000000000000000000000000000000000 DUP2 MSTORE PUSH1 0x20 PUSH1 0x4 DUP3 ADD MSTORE PUSH1 0x1B PUSH1 0x24 DUP3 ADD MSTORE PUSH32 0x556E6973776170464C523A205452414E534645525F4641494C45440000000000 PUSH1 0x44 DUP3 ADD MSTORE SWAP1 MLOAD SWAP1 DUP2 SWAP1 SUB PUSH1 0x64 ADD SWAP1 REVERT JUMPDEST POP POP POP POP POP JUMP JUMPDEST PUSH1 0x3 SLOAD SWAP1 JUMP JUMPDEST PUSH1 0x40 MLOAD PUSH2 0x663 PUSH1 0x20 DUP3 ADD PUSH2 0xD25 JUMP JUMPDEST PUSH1 0x20 DUP3 ADD DUP2 SUB DUP3 MSTORE PUSH1 0x1F NOT PUSH1 0x1F DUP3 ADD AND PUSH1 0x40 MSTORE POP PUSH1 0x40 MLOAD PUSH1 0x20 ADD DUP1 DUP3 DUP1 MLOAD SWAP1 PUSH1 0x20 ADD SWAP1 DUP1 DUP4 DUP4 JUMPDEST PUSH1 0x20 DUP4 LT PUSH2 0x6C7 JUMPI DUP1 MLOAD DUP3 MSTORE PUSH32 0xFFFFFFFFFFFFFFFFFFFFFFFFFFFFFFFFFFFFFFFFFFFFFFFFFFFFFFFFFFFFFFE0 SWAP1 SWAP3 ADD SWAP2 PUSH1 0x20 SWAP2 DUP3 ADD SWAP2 ADD PUSH2 0x68A JUMP JUMPDEST PUSH1 0x1 DUP4 PUSH1 0x20 SUB PUSH2 0x100 EXP SUB DUP1 NOT DUP3 MLOAD AND DUP2 DUP5 MLOAD AND DUP1 DUP3 OR DUP6 MSTORE POP POP POP POP POP POP SWAP1 POP ADD SWAP2 POP POP PUSH1 0x40 MLOAD PUSH1 0x20 DUP2 DUP4 SUB SUB DUP2 MSTORE SWAP1 PUSH1 0x40 MSTORE DUP1 MLOAD SWAP1 PUSH1 0x20 ADD KECCAK256 DUP2 JUMP JUMPDEST PUSH1 0x1 SLOAD PUSH20 0xFFFFFFFFFFFFFFFFFFFFFFFFFFFFFFFFFFFFFFFF AND CALLER EQ PUSH2 0x78B JUMPI PUSH1 0x40 DUP1 MLOAD PUSH32 0x8C379A000000000000000000000000000000000000000000000000000000000 DUP2 MSTORE PUSH1 0x20 PUSH1 0x4 DUP3 ADD MSTORE PUSH1 0x15 PUSH1 0x24 DUP3 ADD MSTORE PUSH32 0x556E6973776170464C523A20464F5242494444454E0000000000000000000000 PUSH1 0x44 DUP3 ADD MSTORE SWAP1 MLOAD SWAP1 DUP2 SWAP1 SUB PUSH1 0x64 ADD SWAP1 REVERT JUMPDEST PUSH1 0x1 DUP1 SLOAD PUSH32 0xFFFFFFFFFFFFFFFFFFFFFFFF0000000000000000000000000000000000000000 AND PUSH20 0xFFFFFFFFFFFFFFFFFFFFFFFFFFFFFFFFFFFFFFFF SWAP3 SWAP1 SWAP3 AND SWAP2 SWAP1 SWAP2 OR SWAP1 SSTORE JUMP JUMPDEST PUSH1 0x0 DUP2 PUSH20 0xFFFFFFFFFFFFFFFFFFFFFFFFFFFFFFFFFFFFFFFF AND DUP4 PUSH20 0xFFFFFFFFFFFFFFFFFFFFFFFFFFFFFFFFFFFFFFFF AND EQ ISZERO PUSH2 0x86F JUMPI PUSH1 0x40 DUP1 MLOAD PUSH32 0x8C379A000000000000000000000000000000000000000000000000000000000 DUP2 MSTORE PUSH1 0x20 PUSH1 0x4 DUP3 ADD MSTORE PUSH1 0x1F PUSH1 0x24 DUP3 ADD MSTORE PUSH32 0x556E6973776170464C523A204944454E544943414C5F41444452455353455300 PUSH1 0x44 DUP3 ADD MSTORE SWAP1 MLOAD SWAP1 DUP2 SWAP1 SUB PUSH1 0x64 ADD SWAP1 REVERT JUMPDEST PUSH1 0x0 DUP1 DUP4 PUSH20 0xFFFFFFFFFFFFFFFFFFFFFFFFFFFFFFFFFFFFFFFF AND DUP6 PUSH20 0xFFFFFFFFFFFFFFFFFFFFFFFFFFFFFFFFFFFFFFFF AND LT PUSH2 0x8AC JUMPI DUP4 DUP6 PUSH2 0x8AF JUMP JUMPDEST DUP5 DUP5 JUMPDEST SWAP1 SWAP3 POP SWAP1 POP PUSH20 0xFFFFFFFFFFFFFFFFFFFFFFFFFFFFFFFFFFFFFFFF DUP3 AND PUSH2 0x936 JUMPI PUSH1 0x40 DUP1 MLOAD PUSH32 0x8C379A000000000000000000000000000000000000000000000000000000000 DUP2 MSTORE PUSH1 0x20 PUSH1 0x4 DUP3 ADD MSTORE PUSH1 0x17 PUSH1 0x24 DUP3 ADD MSTORE PUSH32 0x556E697377617056323A205A45524F5F41444452455353000000000000000000 PUSH1 0x44 DUP3 ADD MSTORE SWAP1 MLOAD SWAP1 DUP2 SWAP1 SUB PUSH1 0x64 ADD SWAP1 REVERT JUMPDEST PUSH20 0xFFFFFFFFFFFFFFFFFFFFFFFFFFFFFFFFFFFFFFFF DUP3 DUP2 AND PUSH1 0x0 SWAP1 DUP2 MSTORE PUSH1 0x2 PUSH1 0x20 SWAP1 DUP2 MSTORE PUSH1 0x40 DUP1 DUP4 KECCAK256 DUP6 DUP6 AND DUP5 MSTORE SWAP1 SWAP2 MSTORE SWAP1 KECCAK256 SLOAD AND ISZERO PUSH2 0x9D7 JUMPI PUSH1 0x40 DUP1 MLOAD PUSH32 0x8C379A000000000000000000000000000000000000000000000000000000000 DUP2 MSTORE PUSH1 0x20 PUSH1 0x4 DUP3 ADD MSTORE PUSH1 0x17 PUSH1 0x24 DUP3 ADD MSTORE PUSH32 0x556E6973776170464C523A20504149525F455849535453000000000000000000 PUSH1 0x44 DUP3 ADD MSTORE SWAP1 MLOAD SWAP1 DUP2 SWAP1 SUB PUSH1 0x64 ADD SWAP1 REVERT JUMPDEST PUSH1 0x60 PUSH1 0x40 MLOAD DUP1 PUSH1 0x20 ADD PUSH2 0x9E9 SWAP1 PUSH2 0xD25 JUMP JUMPDEST PUSH1 0x20 DUP3 ADD DUP2 SUB DUP3 MSTORE PUSH1 0x1F NOT PUSH1 0x1F DUP3 ADD AND PUSH1 0x40 MSTORE POP SWAP1 POP PUSH1 0x0 DUP4 DUP4 PUSH1 0x40 MLOAD PUSH1 0x20 ADD DUP1 DUP4 PUSH20 0xFFFFFFFFFFFFFFFFFFFFFFFFFFFFFFFFFFFFFFFF AND PUSH20 0xFFFFFFFFFFFFFFFFFFFFFFFFFFFFFFFFFFFFFFFF AND PUSH1 0x60 SHL DUP2 MSTORE PUSH1 0x14 ADD DUP3 PUSH20 0xFFFFFFFFFFFFFFFFFFFFFFFFFFFFFFFFFFFFFFFF AND PUSH20 0xFFFFFFFFFFFFFFFFFFFFFFFFFFFFFFFFFFFFFFFF AND PUSH1 0x60 SHL DUP2 MSTORE PUSH1 0x14 ADD SWAP3 POP POP POP PUSH1 0x40 MLOAD PUSH1 0x20 DUP2 DUP4 SUB SUB DUP2 MSTORE SWAP1 PUSH1 0x40 MSTORE DUP1 MLOAD SWAP1 PUSH1 0x20 ADD KECCAK256 SWAP1 POP DUP1 DUP3 MLOAD PUSH1 0x20 DUP5 ADD PUSH1 0x0 CREATE2 PUSH1 0x40 DUP1 MLOAD PUSH32 0x485CC95500000000000000000000000000000000000000000000000000000000 DUP2 MSTORE PUSH20 0xFFFFFFFFFFFFFFFFFFFFFFFFFFFFFFFFFFFFFFFF DUP8 DUP2 AND PUSH1 0x4 DUP4 ADD MSTORE DUP7 DUP2 AND PUSH1 0x24 DUP4 ADD MSTORE SWAP2 MLOAD SWAP3 SWAP8 POP SWAP1 DUP8 AND SWAP2 PUSH4 0x485CC955 SWAP2 PUSH1 0x44 DUP1 DUP3 ADD SWAP3 PUSH1 0x0 SWAP3 SWAP1 SWAP2 SWAP1 DUP3 SWAP1 SUB ADD DUP2 DUP4 DUP8 DUP1 EXTCODESIZE ISZERO DUP1 ISZERO PUSH2 0xB16 JUMPI PUSH1 0x0 DUP1 REVERT JUMPDEST POP GAS CALL ISZERO DUP1 ISZERO PUSH2 0xB2A JUMPI RETURNDATASIZE PUSH1 0x0 DUP1 RETURNDATACOPY RETURNDATASIZE PUSH1 0x0 REVERT JUMPDEST POP POP POP POP PUSH20 0xFFFFFFFFFFFFFFFFFFFFFFFFFFFFFFFFFFFFFFFF DUP5 DUP2 AND PUSH1 0x0 DUP2 DUP2 MSTORE PUSH1 0x2 PUSH1 0x20 DUP2 DUP2 MSTORE PUSH1 0x40 DUP1 DUP5 KECCAK256 DUP10 DUP8 AND DUP1 DUP7 MSTORE SWAP1 DUP4 MSTORE DUP2 DUP6 KECCAK256 DUP1 SLOAD SWAP8 DUP14 AND PUSH32 0xFFFFFFFFFFFFFFFFFFFFFFFF0000000000000000000000000000000000000000 SWAP9 DUP10 AND DUP2 OR SWAP1 SWAP2 SSTORE SWAP4 DUP4 MSTORE DUP2 DUP6 KECCAK256 DUP7 DUP7 MSTORE DUP4 MSTORE DUP2 DUP6 KECCAK256 DUP1 SLOAD DUP9 AND DUP6 OR SWAP1 SSTORE PUSH1 0x3 DUP1 SLOAD PUSH1 0x1 DUP2 ADD DUP3 SSTORE SWAP6 DUP2 SWAP1 MSTORE PUSH32 0xC2575A0E9E593C00F959F8C92F12DB2869C3395A3B0502D05E2516446F71F85B SWAP1 SWAP6 ADD DUP1 SLOAD SWAP1 SWAP8 AND DUP5 OR SWAP1 SWAP7 SSTORE SWAP3 SLOAD DUP4 MLOAD SWAP3 DUP4 MSTORE SWAP1 DUP3 ADD MSTORE DUP2 MLOAD PUSH32 0xD3648BD0F6BA80134A33BA9275AC585D9D315F0AD8355CDDEFDE31AFA28D0E9 SWAP3 SWAP2 DUP2 SWAP1 SUB SWAP1 SWAP2 ADD SWAP1 LOG3 POP POP POP POP SWAP3 SWAP2 POP POP JUMP JUMPDEST PUSH1 0x2 PUSH1 0x20 SWAP1 DUP2 MSTORE PUSH1 0x0 SWAP3 DUP4 MSTORE PUSH1 0x40 DUP1 DUP5 KECCAK256 SWAP1 SWAP2 MSTORE SWAP1 DUP3 MSTORE SWAP1 KECCAK256 SLOAD PUSH20 0xFFFFFFFFFFFFFFFFFFFFFFFFFFFFFFFFFFFFFFFF AND DUP2 JUMP JUMPDEST PUSH1 0x1 SLOAD PUSH20 0xFFFFFFFFFFFFFFFFFFFFFFFFFFFFFFFFFFFFFFFF AND CALLER EQ PUSH2 0xCDE JUMPI PUSH1 0x40 DUP1 MLOAD PUSH32 0x8C379A000000000000000000000000000000000000000000000000000000000 DUP2 MSTORE PUSH1 0x20 PUSH1 0x4 DUP3 ADD MSTORE PUSH1 0x15 PUSH1 0x24 DUP3 ADD MSTORE PUSH32 0x556E6973776170464C523A20464F5242494444454E0000000000000000000000 PUSH1 0x44 DUP3 ADD MSTORE SWAP1 MLOAD SWAP1 DUP2 SWAP1 SUB PUSH1 0x64 ADD SWAP1 REVERT JUMPDEST PUSH1 0x0 DUP1 SLOAD PUSH32 0xFFFFFFFFFFFFFFFFFFFFFFFF0000000000000000000000000000000000000000 AND PUSH20 0xFFFFFFFFFFFFFFFFFFFFFFFFFFFFFFFFFFFFFFFF SWAP3 SWAP1 SWAP3 AND SWAP2 SWAP1 SWAP2 OR SWAP1 SSTORE JUMP JUMPDEST PUSH2 0x3029 DUP1 PUSH2 0xD33 DUP4 CODECOPY ADD SWAP1 JUMP INVALID PUSH1 0x80 PUSH1 0x40 DUP2 SWAP1 MSTORE PUSH1 0x10 PUSH1 0x4 SSTORE DUP1 PUSH1 0x52 PUSH3 0x2FD7 DUP3 CODECOPY PUSH1 0x40 DUP1 MLOAD SWAP2 DUP3 SWAP1 SUB PUSH1 0x52 ADD DUP3 KECCAK256 DUP3 DUP3 ADD DUP3 MSTORE PUSH1 0x13 DUP4 MSTORE PUSH32 0x4A6577656C53776170204C697175696469747900000000000000000000000000 PUSH1 0x20 SWAP4 DUP5 ADD MSTORE DUP2 MLOAD DUP1 DUP4 ADD DUP4 MSTORE PUSH1 0x1 DUP1 DUP3 MSTORE PUSH1 0x31 PUSH1 0xF8 SHL SWAP2 DUP6 ADD SWAP2 SWAP1 SWAP2 MSTORE PUSH1 0x4 SLOAD DUP4 MLOAD DUP1 DUP7 ADD SWAP4 SWAP1 SWAP4 MSTORE PUSH32 0xE7133BEBA94D4A7B3131C35EFF41881ABE3BB7CC0F7265B3FCA992C96A128176 DUP4 DUP6 ADD MSTORE PUSH32 0xC89EFDAA54C0F20C7ADF612882DF0950F5A951637E0307CDCB4C672F298B8BC6 PUSH1 0x60 DUP5 ADD MSTORE PUSH1 0x80 DUP4 ADD MSTORE ADDRESS PUSH1 0xA0 DUP1 DUP5 ADD SWAP2 SWAP1 SWAP2 MSTORE DUP4 MLOAD DUP1 DUP5 SUB SWAP1 SWAP2 ADD DUP2 MSTORE PUSH1 0xC0 DUP4 ADD DUP1 DUP6 MSTORE DUP2 MLOAD SWAP2 DUP7 ADD SWAP2 SWAP1 SWAP2 KECCAK256 PUSH1 0x5 SSTORE PUSH1 0xD SWAP2 SWAP1 SWAP2 SSTORE PUSH1 0x6 SLOAD PUSH3 0x2FCFCB PUSH1 0xE3 SHL SWAP1 SWAP2 MSTORE SWAP2 MLOAD PUSH1 0x1 PUSH1 0x1 PUSH1 0xA0 SHL SUB SWAP3 SWAP1 SWAP3 AND SWAP4 POP PUSH4 0x17E7E58 SWAP3 PUSH1 0xC4 DUP1 DUP4 ADD SWAP4 SWAP2 SWAP3 DUP3 SWAP1 SUB ADD DUP2 DUP7 DUP1 EXTCODESIZE ISZERO DUP1 ISZERO PUSH3 0x132 JUMPI PUSH1 0x0 DUP1 REVERT JUMPDEST POP GAS STATICCALL ISZERO DUP1 ISZERO PUSH3 0x147 JUMPI RETURNDATASIZE PUSH1 0x0 DUP1 RETURNDATACOPY RETURNDATASIZE PUSH1 0x0 REVERT JUMPDEST POP POP POP POP PUSH1 0x40 MLOAD RETURNDATASIZE PUSH1 0x20 DUP2 LT ISZERO PUSH3 0x15E JUMPI PUSH1 0x0 DUP1 REVERT JUMPDEST POP MLOAD PUSH1 0xE DUP1 SLOAD PUSH1 0x1 PUSH1 0x1 PUSH1 0xA0 SHL SUB NOT AND PUSH1 0x1 PUSH1 0x1 PUSH1 0xA0 SHL SUB SWAP1 SWAP3 AND SWAP2 SWAP1 SWAP2 OR SWAP1 SSTORE CALLVALUE DUP1 ISZERO PUSH3 0x18C JUMPI PUSH1 0x0 DUP1 REVERT JUMPDEST POP PUSH1 0x6 DUP1 SLOAD PUSH1 0x1 PUSH1 0x1 PUSH1 0xA0 SHL SUB NOT AND CALLER OR SWAP1 SSTORE PUSH2 0x2E28 DUP1 PUSH3 0x1AF PUSH1 0x0 CODECOPY PUSH1 0x0 RETURN INVALID PUSH1 0x80 PUSH1 0x40 MSTORE PUSH1 0x4 CALLDATASIZE LT PUSH2 0x1AC JUMPI PUSH1 0x0 CALLDATALOAD PUSH1 0xE0 SHR DUP1 PUSH4 0x6A627842 GT PUSH2 0xEC JUMPI DUP1 PUSH4 0xBA9A7A56 GT PUSH2 0x8A JUMPI DUP1 PUSH4 0xD21220A7 GT PUSH2 0x64 JUMPI DUP1 PUSH4 0xD21220A7 EQ PUSH2 0x7C5 JUMPI DUP1 PUSH4 0xD505ACCF EQ PUSH2 0x7DA JUMPI DUP1 PUSH4 0xDD62ED3E EQ PUSH2 0x845 JUMPI DUP1 PUSH4 0xFFF6CAE9 EQ PUSH2 0x88D JUMPI PUSH2 0x1AC JUMP JUMPDEST DUP1 PUSH4 0xBA9A7A56 EQ PUSH2 0x75B JUMPI DUP1 PUSH4 0xBC25CF77 EQ PUSH2 0x770 JUMPI DUP1 PUSH4 0xC45A0155 EQ PUSH2 0x7B0 JUMPI PUSH2 0x1AC JUMP JUMPDEST DUP1 PUSH4 0x7ECEBE00 GT PUSH2 0xC6 JUMPI DUP1 PUSH4 0x7ECEBE00 EQ PUSH2 0x667 JUMPI DUP1 PUSH4 0x89AFCB44 EQ PUSH2 0x6A7 JUMPI DUP1 PUSH4 0x95D89B41 EQ PUSH2 0x700 JUMPI DUP1 PUSH4 0xA9059CBB EQ PUSH2 0x715 JUMPI PUSH2 0x1AC JUMP JUMPDEST DUP1 PUSH4 0x6A627842 EQ PUSH2 0x5D2 JUMPI DUP1 PUSH4 0x70A08231 EQ PUSH2 0x612 JUMPI DUP1 PUSH4 0x7464FC3D EQ PUSH2 0x652 JUMPI PUSH2 0x1AC JUMP JUMPDEST DUP1 PUSH4 0x23B872DD GT PUSH2 0x159 JUMPI DUP1 PUSH4 0x3644E515 GT PUSH2 0x133 JUMPI DUP1 PUSH4 0x3644E515 EQ PUSH2 0x54B JUMPI DUP1 PUSH4 0x485CC955 EQ PUSH2 0x560 JUMPI DUP1 PUSH4 0x5909C0D5 EQ PUSH2 0x5A8 JUMPI DUP1 PUSH4 0x5A3D5493 EQ PUSH2 0x5BD JUMPI PUSH2 0x1AC JUMP JUMPDEST DUP1 PUSH4 0x23B872DD EQ PUSH2 0x4BB JUMPI DUP1 PUSH4 0x30ADF81F EQ PUSH2 0x50B JUMPI DUP1 PUSH4 0x313CE567 EQ PUSH2 0x520 JUMPI PUSH2 0x1AC JUMP JUMPDEST DUP1 PUSH4 0x95EA7B3 GT PUSH2 0x18A JUMPI DUP1 PUSH4 0x95EA7B3 EQ PUSH2 0x3FC JUMPI DUP1 PUSH4 0xDFE1681 EQ PUSH2 0x456 JUMPI DUP1 PUSH4 0x18160DDD EQ PUSH2 0x494 JUMPI PUSH2 0x1AC JUMP JUMPDEST DUP1 PUSH4 0x22C0D9F EQ PUSH2 0x27E JUMPI DUP1 PUSH4 0x6FDDE03 EQ PUSH2 0x326 JUMPI DUP1 PUSH4 0x902F1AC EQ PUSH2 0x3B0 JUMPI JUMPDEST PUSH1 0x6 SLOAD PUSH1 0x40 MLOAD PUSH1 0x0 SWAP2 PUSH20 0xFFFFFFFFFFFFFFFFFFFFFFFFFFFFFFFFFFFFFFFF AND SWAP1 CALLVALUE SWAP1 DUP4 DUP2 DUP2 DUP2 DUP6 DUP8 GAS CALL SWAP3 POP POP POP RETURNDATASIZE DUP1 PUSH1 0x0 DUP2 EQ PUSH2 0x206 JUMPI PUSH1 0x40 MLOAD SWAP2 POP PUSH1 0x1F NOT PUSH1 0x3F RETURNDATASIZE ADD AND DUP3 ADD PUSH1 0x40 MSTORE RETURNDATASIZE DUP3 MSTORE RETURNDATASIZE PUSH1 0x0 PUSH1 0x20 DUP5 ADD RETURNDATACOPY PUSH2 0x20B JUMP JUMPDEST PUSH1 0x60 SWAP2 POP JUMPDEST POP POP SWAP1 POP DUP1 PUSH2 0x27B JUMPI PUSH1 0x40 DUP1 MLOAD PUSH32 0x8C379A000000000000000000000000000000000000000000000000000000000 DUP2 MSTORE PUSH1 0x20 PUSH1 0x4 DUP3 ADD MSTORE PUSH1 0x7 PUSH1 0x24 DUP3 ADD MSTORE PUSH32 0x4661696C75726500000000000000000000000000000000000000000000000000 PUSH1 0x44 DUP3 ADD MSTORE SWAP1 MLOAD SWAP1 DUP2 SWAP1 SUB PUSH1 0x64 ADD SWAP1 REVERT JUMPDEST POP STOP JUMPDEST CALLVALUE DUP1 ISZERO PUSH2 0x28A JUMPI PUSH1 0x0 DUP1 REVERT JUMPDEST POP PUSH2 0x324 PUSH1 0x4 DUP1 CALLDATASIZE SUB PUSH1 0x80 DUP2 LT ISZERO PUSH2 0x2A1 JUMPI PUSH1 0x0 DUP1 REVERT JUMPDEST DUP2 CALLDATALOAD SWAP2 PUSH1 0x20 DUP2 ADD CALLDATALOAD SWAP2 PUSH20 0xFFFFFFFFFFFFFFFFFFFFFFFFFFFFFFFFFFFFFFFF PUSH1 0x40 DUP4 ADD CALLDATALOAD AND SWAP2 SWAP1 DUP2 ADD SWAP1 PUSH1 0x80 DUP2 ADD PUSH1 0x60 DUP3 ADD CALLDATALOAD PUSH5 0x100000000 DUP2 GT ISZERO PUSH2 0x2E5 JUMPI PUSH1 0x0 DUP1 REVERT JUMPDEST DUP3 ADD DUP4 PUSH1 0x20 DUP3 ADD GT ISZERO PUSH2 0x2F7 JUMPI PUSH1 0x0 DUP1 REVERT JUMPDEST DUP1 CALLDATALOAD SWAP1 PUSH1 0x20 ADD SWAP2 DUP5 PUSH1 0x1 DUP4 MUL DUP5 ADD GT PUSH5 0x100000000 DUP4 GT OR ISZERO PUSH2 0x319 JUMPI PUSH1 0x0 DUP1 REVERT JUMPDEST POP SWAP1 SWAP3 POP SWAP1 POP PUSH2 0x8A2 JUMP JUMPDEST STOP JUMPDEST CALLVALUE DUP1 ISZERO PUSH2 0x332 JUMPI PUSH1 0x0 DUP1 REVERT JUMPDEST POP PUSH2 0x33B PUSH2 0xF76 JUMP JUMPDEST PUSH1 0x40 DUP1 MLOAD PUSH1 0x20 DUP1 DUP3 MSTORE DUP4 MLOAD DUP2 DUP4 ADD MSTORE DUP4 MLOAD SWAP2 SWAP3 DUP4 SWAP3 SWAP1 DUP4 ADD SWAP2 DUP6 ADD SWAP1 DUP1 DUP4 DUP4 PUSH1 0x0 JUMPDEST DUP4 DUP2 LT ISZERO PUSH2 0x375 JUMPI DUP2 DUP2 ADD MLOAD DUP4 DUP3 ADD MSTORE PUSH1 0x20 ADD PUSH2 0x35D JUMP JUMPDEST POP POP POP POP SWAP1 POP SWAP1 DUP2 ADD SWAP1 PUSH1 0x1F AND DUP1 ISZERO PUSH2 0x3A2 JUMPI DUP1 DUP3 SUB DUP1 MLOAD PUSH1 0x1 DUP4 PUSH1 0x20 SUB PUSH2 0x100 EXP SUB NOT AND DUP2 MSTORE PUSH1 0x20 ADD SWAP2 POP JUMPDEST POP SWAP3 POP POP POP PUSH1 0x40 MLOAD DUP1 SWAP2 SUB SWAP1 RETURN JUMPDEST CALLVALUE DUP1 ISZERO PUSH2 0x3BC JUMPI PUSH1 0x0 DUP1 REVERT JUMPDEST POP PUSH2 0x3C5 PUSH2 0xFAF JUMP JUMPDEST PUSH1 0x40 DUP1 MLOAD PUSH14 0xFFFFFFFFFFFFFFFFFFFFFFFFFFFF SWAP5 DUP6 AND DUP2 MSTORE SWAP3 SWAP1 SWAP4 AND PUSH1 0x20 DUP4 ADD MSTORE PUSH4 0xFFFFFFFF AND DUP2 DUP4 ADD MSTORE SWAP1 MLOAD SWAP1 DUP2 SWAP1 SUB PUSH1 0x60 ADD SWAP1 RETURN JUMPDEST CALLVALUE DUP1 ISZERO PUSH2 0x408 JUMPI PUSH1 0x0 DUP1 REVERT JUMPDEST POP PUSH2 0x442 PUSH1 0x4 DUP1 CALLDATASIZE SUB PUSH1 0x40 DUP2 LT ISZERO PUSH2 0x41F JUMPI PUSH1 0x0 DUP1 REVERT JUMPDEST POP PUSH20 0xFFFFFFFFFFFFFFFFFFFFFFFFFFFFFFFFFFFFFFFF DUP2 CALLDATALOAD AND SWAP1 PUSH1 0x20 ADD CALLDATALOAD PUSH2 0x1004 JUMP JUMPDEST PUSH1 0x40 DUP1 MLOAD SWAP2 ISZERO ISZERO DUP3 MSTORE MLOAD SWAP1 DUP2 SWAP1 SUB PUSH1 0x20 ADD SWAP1 RETURN JUMPDEST CALLVALUE DUP1 ISZERO PUSH2 0x462 JUMPI PUSH1 0x0 DUP1 REVERT JUMPDEST POP PUSH2 0x46B PUSH2 0x101B JUMP JUMPDEST PUSH1 0x40 DUP1 MLOAD PUSH20 0xFFFFFFFFFFFFFFFFFFFFFFFFFFFFFFFFFFFFFFFF SWAP1 SWAP3 AND DUP3 MSTORE MLOAD SWAP1 DUP2 SWAP1 SUB PUSH1 0x20 ADD SWAP1 RETURN JUMPDEST CALLVALUE DUP1 ISZERO PUSH2 0x4A0 JUMPI PUSH1 0x0 DUP1 REVERT JUMPDEST POP PUSH2 0x4A9 PUSH2 0x1037 JUMP JUMPDEST PUSH1 0x40 DUP1 MLOAD SWAP2 DUP3 MSTORE MLOAD SWAP1 DUP2 SWAP1 SUB PUSH1 0x20 ADD SWAP1 RETURN JUMPDEST CALLVALUE DUP1 ISZERO PUSH2 0x4C7 JUMPI PUSH1 0x0 DUP1 REVERT JUMPDEST POP PUSH2 0x442 PUSH1 0x4 DUP1 CALLDATASIZE SUB PUSH1 0x60 DUP2 LT ISZERO PUSH2 0x4DE JUMPI PUSH1 0x0 DUP1 REVERT JUMPDEST POP PUSH20 0xFFFFFFFFFFFFFFFFFFFFFFFFFFFFFFFFFFFFFFFF DUP2 CALLDATALOAD DUP2 AND SWAP2 PUSH1 0x20 DUP2 ADD CALLDATALOAD SWAP1 SWAP2 AND SWAP1 PUSH1 0x40 ADD CALLDATALOAD PUSH2 0x103D JUMP JUMPDEST CALLVALUE DUP1 ISZERO PUSH2 0x517 JUMPI PUSH1 0x0 DUP1 REVERT JUMPDEST POP PUSH2 0x4A9 PUSH2 0x111C JUMP JUMPDEST CALLVALUE DUP1 ISZERO PUSH2 0x52C JUMPI PUSH1 0x0 DUP1 REVERT JUMPDEST POP PUSH2 0x535 PUSH2 0x1137 JUMP JUMPDEST PUSH1 0x40 DUP1 MLOAD PUSH1 0xFF SWAP1 SWAP3 AND DUP3 MSTORE MLOAD SWAP1 DUP2 SWAP1 SUB PUSH1 0x20 ADD SWAP1 RETURN JUMPDEST CALLVALUE DUP1 ISZERO PUSH2 0x557 JUMPI PUSH1 0x0 DUP1 REVERT JUMPDEST POP PUSH2 0x4A9 PUSH2 0x113C JUMP JUMPDEST CALLVALUE DUP1 ISZERO PUSH2 0x56C JUMPI PUSH1 0x0 DUP1 REVERT JUMPDEST POP PUSH2 0x324 PUSH1 0x4 DUP1 CALLDATASIZE SUB PUSH1 0x40 DUP2 LT ISZERO PUSH2 0x583 JUMPI PUSH1 0x0 DUP1 REVERT JUMPDEST POP PUSH20 0xFFFFFFFFFFFFFFFFFFFFFFFFFFFFFFFFFFFFFFFF DUP2 CALLDATALOAD DUP2 AND SWAP2 PUSH1 0x20 ADD CALLDATALOAD AND PUSH2 0x1142 JUMP JUMPDEST CALLVALUE DUP1 ISZERO PUSH2 0x5B4 JUMPI PUSH1 0x0 DUP1 REVERT JUMPDEST POP PUSH2 0x4A9 PUSH2 0x121B JUMP JUMPDEST CALLVALUE DUP1 ISZERO PUSH2 0x5C9 JUMPI PUSH1 0x0 DUP1 REVERT JUMPDEST POP PUSH2 0x4A9 PUSH2 0x1221 JUMP JUMPDEST CALLVALUE DUP1 ISZERO PUSH2 0x5DE JUMPI PUSH1 0x0 DUP1 REVERT JUMPDEST POP PUSH2 0x4A9 PUSH1 0x4 DUP1 CALLDATASIZE SUB PUSH1 0x20 DUP2 LT ISZERO PUSH2 0x5F5 JUMPI PUSH1 0x0 DUP1 REVERT JUMPDEST POP CALLDATALOAD PUSH20 0xFFFFFFFFFFFFFFFFFFFFFFFFFFFFFFFFFFFFFFFF AND PUSH2 0x1227 JUMP JUMPDEST CALLVALUE DUP1 ISZERO PUSH2 0x61E JUMPI PUSH1 0x0 DUP1 REVERT JUMPDEST POP PUSH2 0x4A9 PUSH1 0x4 DUP1 CALLDATASIZE SUB PUSH1 0x20 DUP2 LT ISZERO PUSH2 0x635 JUMPI PUSH1 0x0 DUP1 REVERT JUMPDEST POP CALLDATALOAD PUSH20 0xFFFFFFFFFFFFFFFFFFFFFFFFFFFFFFFFFFFFFFFF AND PUSH2 0x15F0 JUMP JUMPDEST CALLVALUE DUP1 ISZERO PUSH2 0x65E JUMPI PUSH1 0x0 DUP1 REVERT JUMPDEST POP PUSH2 0x4A9 PUSH2 0x1602 JUMP JUMPDEST CALLVALUE DUP1 ISZERO PUSH2 0x673 JUMPI PUSH1 0x0 DUP1 REVERT JUMPDEST POP PUSH2 0x4A9 PUSH1 0x4 DUP1 CALLDATASIZE SUB PUSH1 0x20 DUP2 LT ISZERO PUSH2 0x68A JUMPI PUSH1 0x0 DUP1 REVERT JUMPDEST POP CALLDATALOAD PUSH20 0xFFFFFFFFFFFFFFFFFFFFFFFFFFFFFFFFFFFFFFFF AND PUSH2 0x1608 JUMP JUMPDEST CALLVALUE DUP1 ISZERO PUSH2 0x6B3 JUMPI PUSH1 0x0 DUP1 REVERT JUMPDEST POP PUSH2 0x6E7 PUSH1 0x4 DUP1 CALLDATASIZE SUB PUSH1 0x20 DUP2 LT ISZERO PUSH2 0x6CA JUMPI PUSH1 0x0 DUP1 REVERT JUMPDEST POP CALLDATALOAD PUSH20 0xFFFFFFFFFFFFFFFFFFFFFFFFFFFFFFFFFFFFFFFF AND PUSH2 0x161A JUMP JUMPDEST PUSH1 0x40 DUP1 MLOAD SWAP3 DUP4 MSTORE PUSH1 0x20 DUP4 ADD SWAP2 SWAP1 SWAP2 MSTORE DUP1 MLOAD SWAP2 DUP3 SWAP1 SUB ADD SWAP1 RETURN JUMPDEST CALLVALUE DUP1 ISZERO PUSH2 0x70C JUMPI PUSH1 0x0 DUP1 REVERT JUMPDEST POP PUSH2 0x33B PUSH2 0x1ACF JUMP JUMPDEST CALLVALUE DUP1 ISZERO PUSH2 0x721 JUMPI PUSH1 0x0 DUP1 REVERT JUMPDEST POP PUSH2 0x442 PUSH1 0x4 DUP1 CALLDATASIZE SUB PUSH1 0x40 DUP2 LT ISZERO PUSH2 0x738 JUMPI PUSH1 0x0 DUP1 REVERT JUMPDEST POP PUSH20 0xFFFFFFFFFFFFFFFFFFFFFFFFFFFFFFFFFFFFFFFF DUP2 CALLDATALOAD AND SWAP1 PUSH1 0x20 ADD CALLDATALOAD PUSH2 0x1B08 JUMP JUMPDEST CALLVALUE DUP1 ISZERO PUSH2 0x767 JUMPI PUSH1 0x0 DUP1 REVERT JUMPDEST POP PUSH2 0x4A9 PUSH2 0x1B15 JUMP JUMPDEST CALLVALUE DUP1 ISZERO PUSH2 0x77C JUMPI PUSH1 0x0 DUP1 REVERT JUMPDEST POP PUSH2 0x324 PUSH1 0x4 DUP1 CALLDATASIZE SUB PUSH1 0x20 DUP2 LT ISZERO PUSH2 0x793 JUMPI PUSH1 0x0 DUP1 REVERT JUMPDEST POP CALLDATALOAD PUSH20 0xFFFFFFFFFFFFFFFFFFFFFFFFFFFFFFFFFFFFFFFF AND PUSH2 0x1B20 JUMP JUMPDEST CALLVALUE DUP1 ISZERO PUSH2 0x7BC JUMPI PUSH1 0x0 DUP1 REVERT JUMPDEST POP PUSH2 0x46B PUSH2 0x1D16 JUMP JUMPDEST CALLVALUE DUP1 ISZERO PUSH2 0x7D1 JUMPI PUSH1 0x0 DUP1 REVERT JUMPDEST POP PUSH2 0x46B PUSH2 0x1D32 JUMP JUMPDEST CALLVALUE DUP1 ISZERO PUSH2 0x7E6 JUMPI PUSH1 0x0 DUP1 REVERT JUMPDEST POP PUSH2 0x324 PUSH1 0x4 DUP1 CALLDATASIZE SUB PUSH1 0xE0 DUP2 LT ISZERO PUSH2 0x7FD JUMPI PUSH1 0x0 DUP1 REVERT JUMPDEST POP PUSH20 0xFFFFFFFFFFFFFFFFFFFFFFFFFFFFFFFFFFFFFFFF DUP2 CALLDATALOAD DUP2 AND SWAP2 PUSH1 0x20 DUP2 ADD CALLDATALOAD SWAP1 SWAP2 AND SWAP1 PUSH1 0x40 DUP2 ADD CALLDATALOAD SWAP1 PUSH1 0x60 DUP2 ADD CALLDATALOAD SWAP1 PUSH1 0xFF PUSH1 0x80 DUP3 ADD CALLDATALOAD AND SWAP1 PUSH1 0xA0 DUP2 ADD CALLDATALOAD SWAP1 PUSH1 0xC0 ADD CALLDATALOAD PUSH2 0x1D4E JUMP JUMPDEST CALLVALUE DUP1 ISZERO PUSH2 0x851 JUMPI PUSH1 0x0 DUP1 REVERT JUMPDEST POP PUSH2 0x4A9 PUSH1 0x4 DUP1 CALLDATASIZE SUB PUSH1 0x40 DUP2 LT ISZERO PUSH2 0x868 JUMPI PUSH1 0x0 DUP1 REVERT JUMPDEST POP PUSH20 0xFFFFFFFFFFFFFFFFFFFFFFFFFFFFFFFFFFFFFFFF DUP2 CALLDATALOAD DUP2 AND SWAP2 PUSH1 0x20 ADD CALLDATALOAD AND PUSH2 0x201B JUMP JUMPDEST CALLVALUE DUP1 ISZERO PUSH2 0x899 JUMPI PUSH1 0x0 DUP1 REVERT JUMPDEST POP PUSH2 0x324 PUSH2 0x2038 JUMP JUMPDEST PUSH1 0xD SLOAD PUSH1 0x1 EQ PUSH2 0x913 JUMPI PUSH1 0x40 DUP1 MLOAD PUSH32 0x8C379A000000000000000000000000000000000000000000000000000000000 DUP2 MSTORE PUSH1 0x20 PUSH1 0x4 DUP3 ADD MSTORE PUSH1 0x11 PUSH1 0x24 DUP3 ADD MSTORE PUSH32 0x556E697377617056323A204C4F434B4544000000000000000000000000000000 PUSH1 0x44 DUP3 ADD MSTORE SWAP1 MLOAD SWAP1 DUP2 SWAP1 SUB PUSH1 0x64 ADD SWAP1 REVERT JUMPDEST PUSH1 0x0 PUSH1 0xD SSTORE DUP5 ISZERO ISZERO DUP1 PUSH2 0x926 JUMPI POP PUSH1 0x0 DUP5 GT JUMPDEST PUSH2 0x97B JUMPI PUSH1 0x40 MLOAD PUSH32 0x8C379A000000000000000000000000000000000000000000000000000000000 DUP2 MSTORE PUSH1 0x4 ADD DUP1 DUP1 PUSH1 0x20 ADD DUP3 DUP2 SUB DUP3 MSTORE PUSH1 0x26 DUP2 MSTORE PUSH1 0x20 ADD DUP1 PUSH2 0x2DCE PUSH1 0x26 SWAP2 CODECOPY PUSH1 0x40 ADD SWAP2 POP POP PUSH1 0x40 MLOAD DUP1 SWAP2 SUB SWAP1 REVERT JUMPDEST PUSH1 0x0 DUP1 PUSH2 0x986 PUSH2 0xFAF JUMP JUMPDEST POP SWAP2 POP SWAP2 POP DUP2 PUSH14 0xFFFFFFFFFFFFFFFFFFFFFFFFFFFF AND DUP8 LT DUP1 ISZERO PUSH2 0x9B9 JUMPI POP DUP1 PUSH14 0xFFFFFFFFFFFFFFFFFFFFFFFFFFFF AND DUP7 LT JUMPDEST PUSH2 0xA0E JUMPI PUSH1 0x40 MLOAD PUSH32 0x8C379A000000000000000000000000000000000000000000000000000000000 DUP2 MSTORE PUSH1 0x4 ADD DUP1 DUP1 PUSH1 0x20 ADD DUP3 DUP2 SUB DUP3 MSTORE PUSH1 0x21 DUP2 MSTORE PUSH1 0x20 ADD DUP1 PUSH2 0x2D0D PUSH1 0x21 SWAP2 CODECOPY PUSH1 0x40 ADD SWAP2 POP POP PUSH1 0x40 MLOAD DUP1 SWAP2 SUB SWAP1 REVERT JUMPDEST PUSH1 0x7 SLOAD PUSH1 0x8 SLOAD PUSH1 0x0 SWAP2 DUP3 SWAP2 PUSH20 0xFFFFFFFFFFFFFFFFFFFFFFFFFFFFFFFFFFFFFFFF SWAP2 DUP3 AND SWAP2 SWAP1 DUP2 AND SWAP1 DUP10 AND DUP3 EQ DUP1 ISZERO SWAP1 PUSH2 0xA73 JUMPI POP DUP1 PUSH20 0xFFFFFFFFFFFFFFFFFFFFFFFFFFFFFFFFFFFFFFFF AND DUP10 PUSH20 0xFFFFFFFFFFFFFFFFFFFFFFFFFFFFFFFFFFFFFFFF AND EQ ISZERO JUMPDEST PUSH2 0xADE JUMPI PUSH1 0x40 DUP1 MLOAD PUSH32 0x8C379A000000000000000000000000000000000000000000000000000000000 DUP2 MSTORE PUSH1 0x20 PUSH1 0x4 DUP3 ADD MSTORE PUSH1 0x16 PUSH1 0x24 DUP3 ADD MSTORE PUSH32 0x556E6973776170464C523A20494E56414C49445F544F00000000000000000000 PUSH1 0x44 DUP3 ADD MSTORE SWAP1 MLOAD SWAP1 DUP2 SWAP1 SUB PUSH1 0x64 ADD SWAP1 REVERT JUMPDEST DUP11 ISZERO PUSH2 0xAEF JUMPI PUSH2 0xAEF DUP3 DUP11 DUP14 PUSH2 0x221E JUMP JUMPDEST DUP10 ISZERO PUSH2 0xB00 JUMPI PUSH2 0xB00 DUP2 DUP11 DUP13 PUSH2 0x221E JUMP JUMPDEST DUP7 ISZERO PUSH2 0xBE2 JUMPI DUP9 PUSH20 0xFFFFFFFFFFFFFFFFFFFFFFFFFFFFFFFFFFFFFFFF AND PUSH4 0x10D1E85C CALLER DUP14 DUP14 DUP13 DUP13 PUSH1 0x40 MLOAD DUP7 PUSH4 0xFFFFFFFF AND PUSH1 0xE0 SHL DUP2 MSTORE PUSH1 0x4 ADD DUP1 DUP7 PUSH20 0xFFFFFFFFFFFFFFFFFFFFFFFFFFFFFFFFFFFFFFFF AND PUSH20 0xFFFFFFFFFFFFFFFFFFFFFFFFFFFFFFFFFFFFFFFF AND DUP2 MSTORE PUSH1 0x20 ADD DUP6 DUP2 MSTORE PUSH1 0x20 ADD DUP5 DUP2 MSTORE PUSH1 0x20 ADD DUP1 PUSH1 0x20 ADD DUP3 DUP2 SUB DUP3 MSTORE DUP5 DUP5 DUP3 DUP2 DUP2 MSTORE PUSH1 0x20 ADD SWAP3 POP DUP1 DUP3 DUP5 CALLDATACOPY PUSH1 0x0 DUP2 DUP5 ADD MSTORE PUSH1 0x1F NOT PUSH1 0x1F DUP3 ADD AND SWAP1 POP DUP1 DUP4 ADD SWAP3 POP POP POP SWAP7 POP POP POP POP POP POP POP PUSH1 0x0 PUSH1 0x40 MLOAD DUP1 DUP4 SUB DUP2 PUSH1 0x0 DUP8 DUP1 EXTCODESIZE ISZERO DUP1 ISZERO PUSH2 0xBC9 JUMPI PUSH1 0x0 DUP1 REVERT JUMPDEST POP GAS CALL ISZERO DUP1 ISZERO PUSH2 0xBDD JUMPI RETURNDATASIZE PUSH1 0x0 DUP1 RETURNDATACOPY RETURNDATASIZE PUSH1 0x0 REVERT JUMPDEST POP POP POP POP JUMPDEST PUSH1 0x40 DUP1 MLOAD PUSH32 0x70A0823100000000000000000000000000000000000000000000000000000000 DUP2 MSTORE ADDRESS PUSH1 0x4 DUP3 ADD MSTORE SWAP1 MLOAD PUSH20 0xFFFFFFFFFFFFFFFFFFFFFFFFFFFFFFFFFFFFFFFF DUP5 AND SWAP2 PUSH4 0x70A08231 SWAP2 PUSH1 0x24 DUP1 DUP4 ADD SWAP3 PUSH1 0x20 SWAP3 SWAP2 SWAP1 DUP3 SWAP1 SUB ADD DUP2 DUP7 DUP1 EXTCODESIZE ISZERO DUP1 ISZERO PUSH2 0xC4E JUMPI PUSH1 0x0 DUP1 REVERT JUMPDEST POP GAS STATICCALL ISZERO DUP1 ISZERO PUSH2 0xC62 JUMPI RETURNDATASIZE PUSH1 0x0 DUP1 RETURNDATACOPY RETURNDATASIZE PUSH1 0x0 REVERT JUMPDEST POP POP POP POP PUSH1 0x40 MLOAD RETURNDATASIZE PUSH1 0x20 DUP2 LT ISZERO PUSH2 0xC78 JUMPI PUSH1 0x0 DUP1 REVERT JUMPDEST POP MLOAD PUSH1 0x40 DUP1 MLOAD PUSH32 0x70A0823100000000000000000000000000000000000000000000000000000000 DUP2 MSTORE ADDRESS PUSH1 0x4 DUP3 ADD MSTORE SWAP1 MLOAD SWAP2 SWAP6 POP PUSH20 0xFFFFFFFFFFFFFFFFFFFFFFFFFFFFFFFFFFFFFFFF DUP4 AND SWAP2 PUSH4 0x70A08231 SWAP2 PUSH1 0x24 DUP1 DUP3 ADD SWAP3 PUSH1 0x20 SWAP3 SWAP1 SWAP2 SWAP1 DUP3 SWAP1 SUB ADD DUP2 DUP7 DUP1 EXTCODESIZE ISZERO DUP1 ISZERO PUSH2 0xCEA JUMPI PUSH1 0x0 DUP1 REVERT JUMPDEST POP GAS STATICCALL ISZERO DUP1 ISZERO PUSH2 0xCFE JUMPI RETURNDATASIZE PUSH1 0x0 DUP1 RETURNDATACOPY RETURNDATASIZE PUSH1 0x0 REVERT JUMPDEST POP POP POP POP PUSH1 0x40 MLOAD RETURNDATASIZE PUSH1 0x20 DUP2 LT ISZERO PUSH2 0xD14 JUMPI PUSH1 0x0 DUP1 REVERT JUMPDEST POP MLOAD SWAP3 POP PUSH1 0x0 SWAP2 POP POP PUSH14 0xFFFFFFFFFFFFFFFFFFFFFFFFFFFF DUP6 AND DUP11 SWAP1 SUB DUP4 GT PUSH2 0xD3E JUMPI PUSH1 0x0 PUSH2 0xD54 JUMP JUMPDEST DUP10 DUP6 PUSH14 0xFFFFFFFFFFFFFFFFFFFFFFFFFFFF AND SUB DUP4 SUB JUMPDEST SWAP1 POP PUSH1 0x0 DUP10 DUP6 PUSH14 0xFFFFFFFFFFFFFFFFFFFFFFFFFFFF AND SUB DUP4 GT PUSH2 0xD78 JUMPI PUSH1 0x0 PUSH2 0xD8E JUMP JUMPDEST DUP10 DUP6 PUSH14 0xFFFFFFFFFFFFFFFFFFFFFFFFFFFF AND SUB DUP4 SUB JUMPDEST SWAP1 POP PUSH1 0x0 DUP3 GT DUP1 PUSH2 0xD9F JUMPI POP PUSH1 0x0 DUP2 GT JUMPDEST PUSH2 0xDF4 JUMPI PUSH1 0x40 MLOAD PUSH32 0x8C379A000000000000000000000000000000000000000000000000000000000 DUP2 MSTORE PUSH1 0x4 ADD DUP1 DUP1 PUSH1 0x20 ADD DUP3 DUP2 SUB DUP3 MSTORE PUSH1 0x25 DUP2 MSTORE PUSH1 0x20 ADD DUP1 PUSH2 0x2DA9 PUSH1 0x25 SWAP2 CODECOPY PUSH1 0x40 ADD SWAP2 POP POP PUSH1 0x40 MLOAD DUP1 SWAP2 SUB SWAP1 REVERT JUMPDEST PUSH1 0x0 PUSH2 0xE28 PUSH2 0xE0A DUP5 PUSH1 0x3 PUSH4 0xFFFFFFFF PUSH2 0x242B AND JUMP JUMPDEST PUSH2 0xE1C DUP8 PUSH2 0x3E8 PUSH4 0xFFFFFFFF PUSH2 0x242B AND JUMP JUMPDEST SWAP1 PUSH4 0xFFFFFFFF PUSH2 0x24B1 AND JUMP JUMPDEST SWAP1 POP PUSH1 0x0 PUSH2 0xE40 PUSH2 0xE0A DUP5 PUSH1 0x3 PUSH4 0xFFFFFFFF PUSH2 0x242B AND JUMP JUMPDEST SWAP1 POP PUSH2 0xE78 PUSH3 0xF4240 PUSH2 0xE6C PUSH14 0xFFFFFFFFFFFFFFFFFFFFFFFFFFFF DUP12 DUP2 AND SWAP1 DUP12 AND PUSH4 0xFFFFFFFF PUSH2 0x242B AND JUMP JUMPDEST SWAP1 PUSH4 0xFFFFFFFF PUSH2 0x242B AND JUMP JUMPDEST PUSH2 0xE88 DUP4 DUP4 PUSH4 0xFFFFFFFF PUSH2 0x242B AND JUMP JUMPDEST LT ISZERO PUSH2 0xEF5 JUMPI PUSH1 0x40 DUP1 MLOAD PUSH32 0x8C379A000000000000000000000000000000000000000000000000000000000 DUP2 MSTORE PUSH1 0x20 PUSH1 0x4 DUP3 ADD MSTORE PUSH1 0xD PUSH1 0x24 DUP3 ADD MSTORE PUSH32 0x556E6973776170464C523A204B00000000000000000000000000000000000000 PUSH1 0x44 DUP3 ADD MSTORE SWAP1 MLOAD SWAP1 DUP2 SWAP1 SUB PUSH1 0x64 ADD SWAP1 REVERT JUMPDEST POP POP PUSH2 0xF03 DUP5 DUP5 DUP9 DUP9 PUSH2 0x2523 JUMP JUMPDEST PUSH1 0x40 DUP1 MLOAD DUP4 DUP2 MSTORE PUSH1 0x20 DUP2 ADD DUP4 SWAP1 MSTORE DUP1 DUP3 ADD DUP14 SWAP1 MSTORE PUSH1 0x60 DUP2 ADD DUP13 SWAP1 MSTORE SWAP1 MLOAD PUSH20 0xFFFFFFFFFFFFFFFFFFFFFFFFFFFFFFFFFFFFFFFF DUP12 AND SWAP2 CALLER SWAP2 PUSH32 0xD78AD95FA46C994B6551D0DA85FC275FE613CE37657FB8D5E3D130840159D822 SWAP2 DUP2 SWAP1 SUB PUSH1 0x80 ADD SWAP1 LOG3 POP POP PUSH1 0x1 PUSH1 0xD SSTORE POP POP POP POP POP POP POP POP POP JUMP JUMPDEST PUSH1 0x40 MLOAD DUP1 PUSH1 0x40 ADD PUSH1 0x40 MSTORE DUP1 PUSH1 0x13 DUP2 MSTORE PUSH1 0x20 ADD PUSH32 0x4A6577656C53776170204C697175696469747900000000000000000000000000 DUP2 MSTORE POP DUP2 JUMP JUMPDEST PUSH1 0x9 SLOAD PUSH14 0xFFFFFFFFFFFFFFFFFFFFFFFFFFFF DUP1 DUP3 AND SWAP3 PUSH15 0x10000000000000000000000000000 DUP4 DIV SWAP1 SWAP2 AND SWAP2 PUSH29 0x100000000000000000000000000000000000000000000000000000000 SWAP1 DIV PUSH4 0xFFFFFFFF AND SWAP1 JUMP JUMPDEST PUSH1 0x0 PUSH2 0x1011 CALLER DUP5 DUP5 PUSH2 0x27DF JUMP JUMPDEST POP PUSH1 0x1 JUMPDEST SWAP3 SWAP2 POP POP JUMP JUMPDEST PUSH1 0x7 SLOAD PUSH20 0xFFFFFFFFFFFFFFFFFFFFFFFFFFFFFFFFFFFFFFFF AND DUP2 JUMP JUMPDEST PUSH1 0x0 SLOAD DUP2 JUMP JUMPDEST PUSH20 0xFFFFFFFFFFFFFFFFFFFFFFFFFFFFFFFFFFFFFFFF DUP4 AND PUSH1 0x0 SWAP1 DUP2 MSTORE PUSH1 0x2 PUSH1 0x20 SWAP1 DUP2 MSTORE PUSH1 0x40 DUP1 DUP4 KECCAK256 CALLER DUP5 MSTORE SWAP1 SWAP2 MSTORE DUP2 KECCAK256 SLOAD PUSH32 0xFFFFFFFFFFFFFFFFFFFFFFFFFFFFFFFFFFFFFFFFFFFFFFFFFFFFFFFFFFFFFFFF EQ PUSH2 0x1107 JUMPI PUSH20 0xFFFFFFFFFFFFFFFFFFFFFFFFFFFFFFFFFFFFFFFF DUP5 AND PUSH1 0x0 SWAP1 DUP2 MSTORE PUSH1 0x2 PUSH1 0x20 SWAP1 DUP2 MSTORE PUSH1 0x40 DUP1 DUP4 KECCAK256 CALLER DUP5 MSTORE SWAP1 SWAP2 MSTORE SWAP1 KECCAK256 SLOAD PUSH2 0x10D5 SWAP1 DUP4 PUSH4 0xFFFFFFFF PUSH2 0x24B1 AND JUMP JUMPDEST PUSH20 0xFFFFFFFFFFFFFFFFFFFFFFFFFFFFFFFFFFFFFFFF DUP6 AND PUSH1 0x0 SWAP1 DUP2 MSTORE PUSH1 0x2 PUSH1 0x20 SWAP1 DUP2 MSTORE PUSH1 0x40 DUP1 DUP4 KECCAK256 CALLER DUP5 MSTORE SWAP1 SWAP2 MSTORE SWAP1 KECCAK256 SSTORE JUMPDEST PUSH2 0x1112 DUP5 DUP5 DUP5 PUSH2 0x284E JUMP JUMPDEST POP PUSH1 0x1 SWAP4 SWAP3 POP POP POP JUMP JUMPDEST PUSH1 0x40 MLOAD DUP1 PUSH1 0x52 PUSH2 0x2D2E DUP3 CODECOPY PUSH1 0x52 ADD SWAP1 POP PUSH1 0x40 MLOAD DUP1 SWAP2 SUB SWAP1 KECCAK256 DUP2 JUMP JUMPDEST PUSH1 0x12 DUP2 JUMP JUMPDEST PUSH1 0x5 SLOAD DUP2 JUMP JUMPDEST PUSH1 0x6 SLOAD PUSH20 0xFFFFFFFFFFFFFFFFFFFFFFFFFFFFFFFFFFFFFFFF AND CALLER EQ PUSH2 0x11C8 JUMPI PUSH1 0x40 DUP1 MLOAD PUSH32 0x8C379A000000000000000000000000000000000000000000000000000000000 DUP2 MSTORE PUSH1 0x20 PUSH1 0x4 DUP3 ADD MSTORE PUSH1 0x15 PUSH1 0x24 DUP3 ADD MSTORE PUSH32 0x556E6973776170464C523A20464F5242494444454E0000000000000000000000 PUSH1 0x44 DUP3 ADD MSTORE SWAP1 MLOAD SWAP1 DUP2 SWAP1 SUB PUSH1 0x64 ADD SWAP1 REVERT JUMPDEST PUSH1 0x7 DUP1 SLOAD PUSH20 0xFFFFFFFFFFFFFFFFFFFFFFFFFFFFFFFFFFFFFFFF SWAP4 DUP5 AND PUSH32 0xFFFFFFFFFFFFFFFFFFFFFFFF0000000000000000000000000000000000000000 SWAP2 DUP3 AND OR SWAP1 SWAP2 SSTORE PUSH1 0x8 DUP1 SLOAD SWAP3 SWAP1 SWAP4 AND SWAP2 AND OR SWAP1 SSTORE JUMP JUMPDEST PUSH1 0xA SLOAD DUP2 JUMP JUMPDEST PUSH1 0xB SLOAD DUP2 JUMP JUMPDEST PUSH1 0x0 PUSH1 0xD SLOAD PUSH1 0x1 EQ PUSH2 0x129A JUMPI PUSH1 0x40 DUP1 MLOAD PUSH32 0x8C379A000000000000000000000000000000000000000000000000000000000 DUP2 MSTORE PUSH1 0x20 PUSH1 0x4 DUP3 ADD MSTORE PUSH1 0x11 PUSH1 0x24 DUP3 ADD MSTORE PUSH32 0x556E697377617056323A204C4F434B4544000000000000000000000000000000 PUSH1 0x44 DUP3 ADD MSTORE SWAP1 MLOAD SWAP1 DUP2 SWAP1 SUB PUSH1 0x64 ADD SWAP1 REVERT JUMPDEST PUSH1 0x0 PUSH1 0xD DUP2 SWAP1 SSTORE DUP1 PUSH2 0x12AA PUSH2 0xFAF JUMP JUMPDEST POP PUSH1 0x7 SLOAD PUSH1 0x40 DUP1 MLOAD PUSH32 0x70A0823100000000000000000000000000000000000000000000000000000000 DUP2 MSTORE ADDRESS PUSH1 0x4 DUP3 ADD MSTORE SWAP1 MLOAD SWAP4 SWAP6 POP SWAP2 SWAP4 POP PUSH1 0x0 SWAP3 PUSH20 0xFFFFFFFFFFFFFFFFFFFFFFFFFFFFFFFFFFFFFFFF SWAP1 SWAP2 AND SWAP2 PUSH4 0x70A08231 SWAP2 PUSH1 0x24 DUP1 DUP4 ADD SWAP3 PUSH1 0x20 SWAP3 SWAP2 SWAP1 DUP3 SWAP1 SUB ADD DUP2 DUP7 DUP1 EXTCODESIZE ISZERO DUP1 ISZERO PUSH2 0x1324 JUMPI PUSH1 0x0 DUP1 REVERT JUMPDEST POP GAS STATICCALL ISZERO DUP1 ISZERO PUSH2 0x1338 JUMPI RETURNDATASIZE PUSH1 0x0 DUP1 RETURNDATACOPY RETURNDATASIZE PUSH1 0x0 REVERT JUMPDEST POP POP POP POP PUSH1 0x40 MLOAD RETURNDATASIZE PUSH1 0x20 DUP2 LT ISZERO PUSH2 0x134E JUMPI PUSH1 0x0 DUP1 REVERT JUMPDEST POP MLOAD PUSH1 0x8 SLOAD PUSH1 0x40 DUP1 MLOAD PUSH32 0x70A0823100000000000000000000000000000000000000000000000000000000 DUP2 MSTORE ADDRESS PUSH1 0x4 DUP3 ADD MSTORE SWAP1 MLOAD SWAP3 SWAP4 POP PUSH1 0x0 SWAP3 PUSH20 0xFFFFFFFFFFFFFFFFFFFFFFFFFFFFFFFFFFFFFFFF SWAP1 SWAP3 AND SWAP2 PUSH4 0x70A08231 SWAP2 PUSH1 0x24 DUP1 DUP3 ADD SWAP3 PUSH1 0x20 SWAP3 SWAP1 SWAP2 SWAP1 DUP3 SWAP1 SUB ADD DUP2 DUP7 DUP1 EXTCODESIZE ISZERO DUP1 ISZERO PUSH2 0x13C7 JUMPI PUSH1 0x0 DUP1 REVERT JUMPDEST POP GAS STATICCALL ISZERO DUP1 ISZERO PUSH2 0x13DB JUMPI RETURNDATASIZE PUSH1 0x0 DUP1 RETURNDATACOPY RETURNDATASIZE PUSH1 0x0 REVERT JUMPDEST POP POP POP POP PUSH1 0x40 MLOAD RETURNDATASIZE PUSH1 0x20 DUP2 LT ISZERO PUSH2 0x13F1 JUMPI PUSH1 0x0 DUP1 REVERT JUMPDEST POP MLOAD SWAP1 POP PUSH1 0x0 PUSH2 0x1417 DUP4 PUSH14 0xFFFFFFFFFFFFFFFFFFFFFFFFFFFF DUP8 AND PUSH4 0xFFFFFFFF PUSH2 0x24B1 AND JUMP JUMPDEST SWAP1 POP PUSH1 0x0 PUSH2 0x143B DUP4 PUSH14 0xFFFFFFFFFFFFFFFFFFFFFFFFFFFF DUP8 AND PUSH4 0xFFFFFFFF PUSH2 0x24B1 AND JUMP JUMPDEST PUSH1 0x0 SLOAD SWAP1 SWAP2 POP DUP1 PUSH2 0x149B JUMPI PUSH2 0x1469 PUSH7 0x38D7EA4C68000 PUSH2 0xE1C PUSH2 0x1464 DUP7 DUP7 PUSH4 0xFFFFFFFF PUSH2 0x242B AND JUMP JUMPDEST PUSH2 0x292F JUMP JUMPDEST PUSH1 0xE SLOAD SWAP1 SWAP9 POP PUSH2 0x1496 SWAP1 PUSH20 0xFFFFFFFFFFFFFFFFFFFFFFFFFFFFFFFFFFFFFFFF AND PUSH7 0x38D7EA4C68000 PUSH2 0x2981 JUMP JUMPDEST PUSH2 0x14F8 JUMP JUMPDEST PUSH2 0x14F5 PUSH14 0xFFFFFFFFFFFFFFFFFFFFFFFFFFFF DUP9 AND PUSH2 0x14BF DUP6 DUP5 PUSH4 0xFFFFFFFF PUSH2 0x242B AND JUMP JUMPDEST DUP2 PUSH2 0x14C6 JUMPI INVALID JUMPDEST DIV PUSH14 0xFFFFFFFFFFFFFFFFFFFFFFFFFFFF DUP9 AND PUSH2 0x14E8 DUP6 DUP6 PUSH4 0xFFFFFFFF PUSH2 0x242B AND JUMP JUMPDEST DUP2 PUSH2 0x14EF JUMPI INVALID JUMPDEST DIV PUSH2 0x2A31 JUMP JUMPDEST SWAP8 POP JUMPDEST PUSH1 0x0 DUP9 GT PUSH2 0x1551 JUMPI PUSH1 0x40 MLOAD PUSH32 0x8C379A000000000000000000000000000000000000000000000000000000000 DUP2 MSTORE PUSH1 0x4 ADD DUP1 DUP1 PUSH1 0x20 ADD DUP3 DUP2 SUB DUP3 MSTORE PUSH1 0x29 DUP2 MSTORE PUSH1 0x20 ADD DUP1 PUSH2 0x2CE4 PUSH1 0x29 SWAP2 CODECOPY PUSH1 0x40 ADD SWAP2 POP POP PUSH1 0x40 MLOAD DUP1 SWAP2 SUB SWAP1 REVERT JUMPDEST PUSH1 0x0 PUSH2 0x1565 DUP10 PUSH2 0x3E8 PUSH4 0xFFFFFFFF PUSH2 0x2A49 AND JUMP JUMPDEST PUSH1 0xE SLOAD SWAP1 SWAP2 POP PUSH2 0x158B SWAP1 PUSH20 0xFFFFFFFFFFFFFFFFFFFFFFFFFFFFFFFFFFFFFFFF AND DUP3 PUSH2 0x2981 JUMP JUMPDEST PUSH2 0x1597 DUP11 DUP3 DUP12 SUB PUSH2 0x2981 JUMP JUMPDEST PUSH2 0x15A3 DUP7 DUP7 DUP11 DUP11 PUSH2 0x2523 JUMP JUMPDEST PUSH1 0x40 DUP1 MLOAD DUP6 DUP2 MSTORE PUSH1 0x20 DUP2 ADD DUP6 SWAP1 MSTORE DUP2 MLOAD CALLER SWAP3 PUSH32 0x4C209B5FC8AD50758F13E2E1088BA56A560DFF690A1C6FEF26394F4C03821C4F SWAP3 DUP3 SWAP1 SUB ADD SWAP1 LOG2 POP POP PUSH1 0x1 PUSH1 0xD SSTORE POP SWAP5 SWAP7 SWAP6 POP POP POP POP POP POP JUMP JUMPDEST PUSH1 0x1 PUSH1 0x20 MSTORE PUSH1 0x0 SWAP1 DUP2 MSTORE PUSH1 0x40 SWAP1 KECCAK256 SLOAD DUP2 JUMP JUMPDEST PUSH1 0xC SLOAD DUP2 JUMP JUMPDEST PUSH1 0x3 PUSH1 0x20 MSTORE PUSH1 0x0 SWAP1 DUP2 MSTORE PUSH1 0x40 SWAP1 KECCAK256 SLOAD DUP2 JUMP JUMPDEST PUSH1 0x0 DUP1 PUSH1 0xD SLOAD PUSH1 0x1 EQ PUSH2 0x168E JUMPI PUSH1 0x40 DUP1 MLOAD PUSH32 0x8C379A000000000000000000000000000000000000000000000000000000000 DUP2 MSTORE PUSH1 0x20 PUSH1 0x4 DUP3 ADD MSTORE PUSH1 0x11 PUSH1 0x24 DUP3 ADD MSTORE PUSH32 0x556E697377617056323A204C4F434B4544000000000000000000000000000000 PUSH1 0x44 DUP3 ADD MSTORE SWAP1 MLOAD SWAP1 DUP2 SWAP1 SUB PUSH1 0x64 ADD SWAP1 REVERT JUMPDEST PUSH1 0x0 PUSH1 0xD DUP2 SWAP1 SSTORE DUP1 PUSH2 0x169E PUSH2 0xFAF JUMP JUMPDEST POP PUSH1 0x7 SLOAD PUSH1 0x8 SLOAD PUSH1 0x40 DUP1 MLOAD PUSH32 0x70A0823100000000000000000000000000000000000000000000000000000000 DUP2 MSTORE ADDRESS PUSH1 0x4 DUP3 ADD MSTORE SWAP1 MLOAD SWAP5 SWAP7 POP SWAP3 SWAP5 POP PUSH20 0xFFFFFFFFFFFFFFFFFFFFFFFFFFFFFFFFFFFFFFFF SWAP2 DUP3 AND SWAP4 SWAP2 AND SWAP2 PUSH1 0x0 SWAP2 DUP5 SWAP2 PUSH4 0x70A08231 SWAP2 PUSH1 0x24 DUP1 DUP4 ADD SWAP3 PUSH1 0x20 SWAP3 SWAP2 SWAP1 DUP3 SWAP1 SUB ADD DUP2 DUP7 DUP1 EXTCODESIZE ISZERO DUP1 ISZERO PUSH2 0x1720 JUMPI PUSH1 0x0 DUP1 REVERT JUMPDEST POP GAS STATICCALL ISZERO DUP1 ISZERO PUSH2 0x1734 JUMPI RETURNDATASIZE PUSH1 0x0 DUP1 RETURNDATACOPY RETURNDATASIZE PUSH1 0x0 REVERT JUMPDEST POP POP POP POP PUSH1 0x40 MLOAD RETURNDATASIZE PUSH1 0x20 DUP2 LT ISZERO PUSH2 0x174A JUMPI PUSH1 0x0 DUP1 REVERT JUMPDEST POP MLOAD PUSH1 0x40 DUP1 MLOAD PUSH32 0x70A0823100000000000000000000000000000000000000000000000000000000 DUP2 MSTORE ADDRESS PUSH1 0x4 DUP3 ADD MSTORE SWAP1 MLOAD SWAP2 SWAP3 POP PUSH1 0x0 SWAP2 PUSH20 0xFFFFFFFFFFFFFFFFFFFFFFFFFFFFFFFFFFFFFFFF DUP6 AND SWAP2 PUSH4 0x70A08231 SWAP2 PUSH1 0x24 DUP1 DUP4 ADD SWAP3 PUSH1 0x20 SWAP3 SWAP2 SWAP1 DUP3 SWAP1 SUB ADD DUP2 DUP7 DUP1 EXTCODESIZE ISZERO DUP1 ISZERO PUSH2 0x17BE JUMPI PUSH1 0x0 DUP1 REVERT JUMPDEST POP GAS STATICCALL ISZERO DUP1 ISZERO PUSH2 0x17D2 JUMPI RETURNDATASIZE PUSH1 0x0 DUP1 RETURNDATACOPY RETURNDATASIZE PUSH1 0x0 REVERT JUMPDEST POP POP POP POP PUSH1 0x40 MLOAD RETURNDATASIZE PUSH1 0x20 DUP2 LT ISZERO PUSH2 0x17E8 JUMPI PUSH1 0x0 DUP1 REVERT JUMPDEST POP MLOAD ADDRESS PUSH1 0x0 SWAP1 DUP2 MSTORE PUSH1 0x1 PUSH1 0x20 MSTORE PUSH1 0x40 DUP2 KECCAK256 SLOAD SWAP2 SWAP3 POP PUSH2 0x180F DUP3 PUSH2 0x3E8 PUSH4 0xFFFFFFFF PUSH2 0x2A49 AND JUMP JUMPDEST SWAP1 POP PUSH1 0x0 PUSH2 0x1823 DUP4 DUP4 PUSH4 0xFFFFFFFF PUSH2 0x24B1 AND JUMP JUMPDEST PUSH1 0x0 SLOAD SWAP1 SWAP2 POP DUP1 PUSH2 0x183A DUP4 DUP9 PUSH4 0xFFFFFFFF PUSH2 0x242B AND JUMP JUMPDEST DUP2 PUSH2 0x1841 JUMPI INVALID JUMPDEST DIV SWAP12 POP DUP1 PUSH2 0x1855 DUP4 DUP8 PUSH4 0xFFFFFFFF PUSH2 0x242B AND JUMP JUMPDEST DUP2 PUSH2 0x185C JUMPI INVALID JUMPDEST DIV SWAP11 POP PUSH1 0x0 DUP13 GT DUP1 ISZERO PUSH2 0x186F JUMPI POP PUSH1 0x0 DUP12 GT JUMPDEST PUSH2 0x18C4 JUMPI PUSH1 0x40 MLOAD PUSH32 0x8C379A000000000000000000000000000000000000000000000000000000000 DUP2 MSTORE PUSH1 0x4 ADD DUP1 DUP1 PUSH1 0x20 ADD DUP3 DUP2 SUB DUP3 MSTORE PUSH1 0x29 DUP2 MSTORE PUSH1 0x20 ADD DUP1 PUSH2 0x2D80 PUSH1 0x29 SWAP2 CODECOPY PUSH1 0x40 ADD SWAP2 POP POP PUSH1 0x40 MLOAD DUP1 SWAP2 SUB SWAP1 REVERT JUMPDEST PUSH1 0xE SLOAD PUSH2 0x18E9 SWAP1 ADDRESS SWAP1 PUSH20 0xFFFFFFFFFFFFFFFFFFFFFFFFFFFFFFFFFFFFFFFF AND DUP6 PUSH2 0x221E JUMP JUMPDEST PUSH2 0x18F3 ADDRESS DUP4 PUSH2 0x2A8B JUMP JUMPDEST PUSH2 0x18FE DUP9 DUP15 DUP15 PUSH2 0x221E JUMP JUMPDEST PUSH2 0x1909 DUP8 DUP15 DUP14 PUSH2 0x221E JUMP JUMPDEST PUSH1 0x40 DUP1 MLOAD PUSH32 0x70A0823100000000000000000000000000000000000000000000000000000000 DUP2 MSTORE ADDRESS PUSH1 0x4 DUP3 ADD MSTORE SWAP1 MLOAD PUSH20 0xFFFFFFFFFFFFFFFFFFFFFFFFFFFFFFFFFFFFFFFF DUP11 AND SWAP2 PUSH4 0x70A08231 SWAP2 PUSH1 0x24 DUP1 DUP4 ADD SWAP3 PUSH1 0x20 SWAP3 SWAP2 SWAP1 DUP3 SWAP1 SUB ADD DUP2 DUP7 DUP1 EXTCODESIZE ISZERO DUP1 ISZERO PUSH2 0x1975 JUMPI PUSH1 0x0 DUP1 REVERT JUMPDEST POP GAS STATICCALL ISZERO DUP1 ISZERO PUSH2 0x1989 JUMPI RETURNDATASIZE PUSH1 0x0 DUP1 RETURNDATACOPY RETURNDATASIZE PUSH1 0x0 REVERT JUMPDEST POP POP POP POP PUSH1 0x40 MLOAD RETURNDATASIZE PUSH1 0x20 DUP2 LT ISZERO PUSH2 0x199F JUMPI PUSH1 0x0 DUP1 REVERT JUMPDEST POP MLOAD PUSH1 0x40 DUP1 MLOAD PUSH32 0x70A0823100000000000000000000000000000000000000000000000000000000 DUP2 MSTORE ADDRESS PUSH1 0x4 DUP3 ADD MSTORE SWAP1 MLOAD SWAP2 SWAP8 POP PUSH20 0xFFFFFFFFFFFFFFFFFFFFFFFFFFFFFFFFFFFFFFFF DUP10 AND SWAP2 PUSH4 0x70A08231 SWAP2 PUSH1 0x24 DUP1 DUP3 ADD SWAP3 PUSH1 0x20 SWAP3 SWAP1 SWAP2 SWAP1 DUP3 SWAP1 SUB ADD DUP2 DUP7 DUP1 EXTCODESIZE ISZERO DUP1 ISZERO PUSH2 0x1A11 JUMPI PUSH1 0x0 DUP1 REVERT JUMPDEST POP GAS STATICCALL ISZERO DUP1 ISZERO PUSH2 0x1A25 JUMPI RETURNDATASIZE PUSH1 0x0 DUP1 RETURNDATACOPY RETURNDATASIZE PUSH1 0x0 REVERT JUMPDEST POP POP POP POP PUSH1 0x40 MLOAD RETURNDATASIZE PUSH1 0x20 DUP2 LT ISZERO PUSH2 0x1A3B JUMPI PUSH1 0x0 DUP1 REVERT JUMPDEST POP MLOAD SWAP5 POP PUSH2 0x1A4B DUP7 DUP7 DUP13 DUP13 PUSH2 0x2523 JUMP JUMPDEST DUP13 PUSH20 0xFFFFFFFFFFFFFFFFFFFFFFFFFFFFFFFFFFFFFFFF AND CALLER PUSH20 0xFFFFFFFFFFFFFFFFFFFFFFFFFFFFFFFFFFFFFFFF AND PUSH32 0xDCCD412F0B1252819CB1FD330B93224CA42612892BB3F4F789976E6D81936496 DUP15 DUP15 PUSH1 0x40 MLOAD DUP1 DUP4 DUP2 MSTORE PUSH1 0x20 ADD DUP3 DUP2 MSTORE PUSH1 0x20 ADD SWAP3 POP POP POP PUSH1 0x40 MLOAD DUP1 SWAP2 SUB SWAP1 LOG3 POP POP POP POP POP POP POP POP POP POP PUSH1 0x1 PUSH1 0xD DUP2 SWAP1 SSTORE POP SWAP2 POP SWAP2 JUMP JUMPDEST PUSH1 0x40 MLOAD DUP1 PUSH1 0x40 ADD PUSH1 0x40 MSTORE DUP1 PUSH1 0x9 DUP2 MSTORE PUSH1 0x20 ADD PUSH32 0x4A6577656C2D4C50730000000000000000000000000000000000000000000000 DUP2 MSTORE POP DUP2 JUMP JUMPDEST PUSH1 0x0 PUSH2 0x1011 CALLER DUP5 DUP5 PUSH2 0x284E JUMP JUMPDEST PUSH7 0x38D7EA4C68000 DUP2 JUMP JUMPDEST PUSH1 0xD SLOAD PUSH1 0x1 EQ PUSH2 0x1B91 JUMPI PUSH1 0x40 DUP1 MLOAD PUSH32 0x8C379A000000000000000000000000000000000000000000000000000000000 DUP2 MSTORE PUSH1 0x20 PUSH1 0x4 DUP3 ADD MSTORE PUSH1 0x11 PUSH1 0x24 DUP3 ADD MSTORE PUSH32 0x556E697377617056323A204C4F434B4544000000000000000000000000000000 PUSH1 0x44 DUP3 ADD MSTORE SWAP1 MLOAD SWAP1 DUP2 SWAP1 SUB PUSH1 0x64 ADD SWAP1 REVERT JUMPDEST PUSH1 0x0 PUSH1 0xD SSTORE PUSH1 0x7 SLOAD PUSH1 0x8 SLOAD PUSH1 0x9 SLOAD PUSH1 0x40 DUP1 MLOAD PUSH32 0x70A0823100000000000000000000000000000000000000000000000000000000 DUP2 MSTORE ADDRESS PUSH1 0x4 DUP3 ADD MSTORE SWAP1 MLOAD PUSH20 0xFFFFFFFFFFFFFFFFFFFFFFFFFFFFFFFFFFFFFFFF SWAP5 DUP6 AND SWAP5 SWAP1 SWAP4 AND SWAP3 PUSH2 0x1C6D SWAP3 DUP6 SWAP3 DUP8 SWAP3 PUSH2 0x1C68 SWAP3 PUSH14 0xFFFFFFFFFFFFFFFFFFFFFFFFFFFF AND SWAP2 DUP6 SWAP2 PUSH4 0x70A08231 SWAP2 PUSH1 0x24 DUP1 DUP3 ADD SWAP3 PUSH1 0x20 SWAP3 SWAP1 SWAP2 SWAP1 DUP3 SWAP1 SUB ADD DUP2 DUP7 DUP1 EXTCODESIZE ISZERO DUP1 ISZERO PUSH2 0x1C30 JUMPI PUSH1 0x0 DUP1 REVERT JUMPDEST POP GAS STATICCALL ISZERO DUP1 ISZERO PUSH2 0x1C44 JUMPI RETURNDATASIZE PUSH1 0x0 DUP1 RETURNDATACOPY RETURNDATASIZE PUSH1 0x0 REVERT JUMPDEST POP POP POP POP PUSH1 0x40 MLOAD RETURNDATASIZE PUSH1 0x20 DUP2 LT ISZERO PUSH2 0x1C5A JUMPI PUSH1 0x0 DUP1 REVERT JUMPDEST POP MLOAD SWAP1 PUSH4 0xFFFFFFFF PUSH2 0x24B1 AND JUMP JUMPDEST PUSH2 0x221E JUMP JUMPDEST PUSH1 0x9 SLOAD PUSH1 0x40 DUP1 MLOAD PUSH32 0x70A0823100000000000000000000000000000000000000000000000000000000 DUP2 MSTORE ADDRESS PUSH1 0x4 DUP3 ADD MSTORE SWAP1 MLOAD PUSH2 0x1D0C SWAP3 DUP5 SWAP3 DUP8 SWAP3 PUSH2 0x1C68 SWAP3 PUSH15 0x10000000000000000000000000000 SWAP1 DIV PUSH14 0xFFFFFFFFFFFFFFFFFFFFFFFFFFFF AND SWAP2 PUSH20 0xFFFFFFFFFFFFFFFFFFFFFFFFFFFFFFFFFFFFFFFF DUP7 AND SWAP2 PUSH4 0x70A08231 SWAP2 PUSH1 0x24 DUP1 DUP3 ADD SWAP3 PUSH1 0x20 SWAP3 SWAP1 SWAP2 SWAP1 DUP3 SWAP1 SUB ADD DUP2 DUP7 DUP1 EXTCODESIZE ISZERO DUP1 ISZERO PUSH2 0x1C30 JUMPI PUSH1 0x0 DUP1 REVERT JUMPDEST POP POP PUSH1 0x1 PUSH1 0xD SSTORE POP JUMP JUMPDEST PUSH1 0x6 SLOAD PUSH20 0xFFFFFFFFFFFFFFFFFFFFFFFFFFFFFFFFFFFFFFFF AND DUP2 JUMP JUMPDEST PUSH1 0x8 SLOAD PUSH20 0xFFFFFFFFFFFFFFFFFFFFFFFFFFFFFFFFFFFFFFFF AND DUP2 JUMP JUMPDEST TIMESTAMP DUP5 LT ISZERO PUSH2 0x1DBD JUMPI PUSH1 0x40 DUP1 MLOAD PUSH32 0x8C379A000000000000000000000000000000000000000000000000000000000 DUP2 MSTORE PUSH1 0x20 PUSH1 0x4 DUP3 ADD MSTORE PUSH1 0x13 PUSH1 0x24 DUP3 ADD MSTORE PUSH32 0x556E6973776170464C523A204558504952454400000000000000000000000000 PUSH1 0x44 DUP3 ADD MSTORE SWAP1 MLOAD SWAP1 DUP2 SWAP1 SUB PUSH1 0x64 ADD SWAP1 REVERT JUMPDEST PUSH1 0x0 PUSH1 0x5 SLOAD PUSH1 0x40 MLOAD DUP1 DUP1 PUSH2 0x2D2E PUSH1 0x52 SWAP2 CODECOPY PUSH1 0x40 DUP1 MLOAD SWAP2 DUP3 SWAP1 SUB PUSH1 0x52 ADD DUP3 KECCAK256 PUSH20 0xFFFFFFFFFFFFFFFFFFFFFFFFFFFFFFFFFFFFFFFF DUP1 DUP15 AND PUSH1 0x0 DUP2 DUP2 MSTORE PUSH1 0x3 PUSH1 0x20 SWAP1 DUP2 MSTORE DUP6 DUP3 KECCAK256 DUP1 SLOAD PUSH1 0x1 DUP1 DUP3 ADD SWAP1 SWAP3 SSTORE DUP3 DUP10 ADD SWAP7 SWAP1 SWAP7 MSTORE DUP8 DUP8 ADD SWAP4 SWAP1 SWAP4 MSTORE SWAP3 DUP16 AND PUSH1 0x60 DUP8 ADD MSTORE PUSH1 0x80 DUP7 ADD DUP15 SWAP1 MSTORE PUSH1 0xA0 DUP7 ADD SWAP4 SWAP1 SWAP4 MSTORE PUSH1 0xC0 DUP1 DUP7 ADD DUP14 SWAP1 MSTORE DUP5 MLOAD DUP1 DUP8 SUB SWAP1 SWAP2 ADD DUP2 MSTORE PUSH1 0xE0 DUP7 ADD DUP6 MSTORE DUP1 MLOAD SWAP1 DUP4 ADD KECCAK256 PUSH32 0x1901000000000000000000000000000000000000000000000000000000000000 PUSH2 0x100 DUP8 ADD MSTORE PUSH2 0x102 DUP7 ADD SWAP8 SWAP1 SWAP8 MSTORE PUSH2 0x122 DUP1 DUP7 ADD SWAP8 SWAP1 SWAP8 MSTORE DUP4 MLOAD DUP1 DUP7 SUB SWAP1 SWAP8 ADD DUP8 MSTORE PUSH2 0x142 DUP6 ADD DUP1 DUP6 MSTORE DUP8 MLOAD SWAP8 DUP4 ADD SWAP8 SWAP1 SWAP8 KECCAK256 SWAP7 DUP4 SWAP1 MSTORE PUSH2 0x162 DUP6 ADD DUP1 DUP6 MSTORE DUP8 SWAP1 MSTORE PUSH1 0xFF DUP12 AND PUSH2 0x182 DUP7 ADD MSTORE PUSH2 0x1A2 DUP6 ADD DUP11 SWAP1 MSTORE PUSH2 0x1C2 DUP6 ADD DUP10 SWAP1 MSTORE SWAP3 MLOAD SWAP6 SWAP7 POP SWAP1 SWAP5 SWAP2 SWAP4 POP PUSH2 0x1E2 DUP1 DUP5 ADD SWAP4 SWAP2 SWAP3 PUSH32 0xFFFFFFFFFFFFFFFFFFFFFFFFFFFFFFFFFFFFFFFFFFFFFFFFFFFFFFFFFFFFFFE0 DUP2 ADD SWAP3 DUP2 SWAP1 SUB SWAP1 SWAP2 ADD SWAP1 DUP6 GAS STATICCALL ISZERO DUP1 ISZERO PUSH2 0x1F1F JUMPI RETURNDATASIZE PUSH1 0x0 DUP1 RETURNDATACOPY RETURNDATASIZE PUSH1 0x0 REVERT JUMPDEST POP POP PUSH1 0x40 MLOAD PUSH32 0xFFFFFFFFFFFFFFFFFFFFFFFFFFFFFFFFFFFFFFFFFFFFFFFFFFFFFFFFFFFFFFE0 ADD MLOAD SWAP2 POP POP PUSH20 0xFFFFFFFFFFFFFFFFFFFFFFFFFFFFFFFFFFFFFFFF DUP2 AND ISZERO DUP1 ISZERO SWAP1 PUSH2 0x1F9A JUMPI POP DUP9 PUSH20 0xFFFFFFFFFFFFFFFFFFFFFFFFFFFFFFFFFFFFFFFF AND DUP2 PUSH20 0xFFFFFFFFFFFFFFFFFFFFFFFFFFFFFFFFFFFFFFFF AND EQ JUMPDEST PUSH2 0x2005 JUMPI PUSH1 0x40 DUP1 MLOAD PUSH32 0x8C379A000000000000000000000000000000000000000000000000000000000 DUP2 MSTORE PUSH1 0x20 PUSH1 0x4 DUP3 ADD MSTORE PUSH1 0x1D PUSH1 0x24 DUP3 ADD MSTORE PUSH32 0x556E6973776170464C523A20494E56414C49445F5349474E4154555245000000 PUSH1 0x44 DUP3 ADD MSTORE SWAP1 MLOAD SWAP1 DUP2 SWAP1 SUB PUSH1 0x64 ADD SWAP1 REVERT JUMPDEST PUSH2 0x2010 DUP10 DUP10 DUP10 PUSH2 0x27DF JUMP JUMPDEST POP POP POP POP POP POP POP POP POP JUMP JUMPDEST PUSH1 0x2 PUSH1 0x20 SWAP1 DUP2 MSTORE PUSH1 0x0 SWAP3 DUP4 MSTORE PUSH1 0x40 DUP1 DUP5 KECCAK256 SWAP1 SWAP2 MSTORE SWAP1 DUP3 MSTORE SWAP1 KECCAK256 SLOAD DUP2 JUMP JUMPDEST PUSH1 0xD SLOAD PUSH1 0x1 EQ PUSH2 0x20A9 JUMPI PUSH1 0x40 DUP1 MLOAD PUSH32 0x8C379A000000000000000000000000000000000000000000000000000000000 DUP2 MSTORE PUSH1 0x20 PUSH1 0x4 DUP3 ADD MSTORE PUSH1 0x11 PUSH1 0x24 DUP3 ADD MSTORE PUSH32 0x556E697377617056323A204C4F434B4544000000000000000000000000000000 PUSH1 0x44 DUP3 ADD MSTORE SWAP1 MLOAD SWAP1 DUP2 SWAP1 SUB PUSH1 0x64 ADD SWAP1 REVERT JUMPDEST PUSH1 0x0 PUSH1 0xD SSTORE PUSH1 0x7 SLOAD PUSH1 0x40 DUP1 MLOAD PUSH32 0x70A0823100000000000000000000000000000000000000000000000000000000 DUP2 MSTORE ADDRESS PUSH1 0x4 DUP3 ADD MSTORE SWAP1 MLOAD PUSH2 0x2217 SWAP3 PUSH20 0xFFFFFFFFFFFFFFFFFFFFFFFFFFFFFFFFFFFFFFFF AND SWAP2 PUSH4 0x70A08231 SWAP2 PUSH1 0x24 DUP1 DUP4 ADD SWAP3 PUSH1 0x20 SWAP3 SWAP2 SWAP1 DUP3 SWAP1 SUB ADD DUP2 DUP7 DUP1 EXTCODESIZE ISZERO DUP1 ISZERO PUSH2 0x2120 JUMPI PUSH1 0x0 DUP1 REVERT JUMPDEST POP GAS STATICCALL ISZERO DUP1 ISZERO PUSH2 0x2134 JUMPI RETURNDATASIZE PUSH1 0x0 DUP1 RETURNDATACOPY RETURNDATASIZE PUSH1 0x0 REVERT JUMPDEST POP POP POP POP PUSH1 0x40 MLOAD RETURNDATASIZE PUSH1 0x20 DUP2 LT ISZERO PUSH2 0x214A JUMPI PUSH1 0x0 DUP1 REVERT JUMPDEST POP MLOAD PUSH1 0x8 SLOAD PUSH1 0x40 DUP1 MLOAD PUSH32 0x70A0823100000000000000000000000000000000000000000000000000000000 DUP2 MSTORE ADDRESS PUSH1 0x4 DUP3 ADD MSTORE SWAP1 MLOAD PUSH20 0xFFFFFFFFFFFFFFFFFFFFFFFFFFFFFFFFFFFFFFFF SWAP1 SWAP3 AND SWAP2 PUSH4 0x70A08231 SWAP2 PUSH1 0x24 DUP1 DUP3 ADD SWAP3 PUSH1 0x20 SWAP3 SWAP1 SWAP2 SWAP1 DUP3 SWAP1 SUB ADD DUP2 DUP7 DUP1 EXTCODESIZE ISZERO DUP1 ISZERO PUSH2 0x21BD JUMPI PUSH1 0x0 DUP1 REVERT JUMPDEST POP GAS STATICCALL ISZERO DUP1 ISZERO PUSH2 0x21D1 JUMPI RETURNDATASIZE PUSH1 0x0 DUP1 RETURNDATACOPY RETURNDATASIZE PUSH1 0x0 REVERT JUMPDEST POP POP POP POP PUSH1 0x40 MLOAD RETURNDATASIZE PUSH1 0x20 DUP2 LT ISZERO PUSH2 0x21E7 JUMPI PUSH1 0x0 DUP1 REVERT JUMPDEST POP MLOAD PUSH1 0x9 SLOAD PUSH14 0xFFFFFFFFFFFFFFFFFFFFFFFFFFFF DUP1 DUP3 AND SWAP2 PUSH15 0x10000000000000000000000000000 SWAP1 DIV AND PUSH2 0x2523 JUMP JUMPDEST PUSH1 0x1 PUSH1 0xD SSTORE JUMP JUMPDEST PUSH1 0x40 DUP1 MLOAD DUP1 DUP3 ADD DUP3 MSTORE PUSH1 0x19 DUP2 MSTORE PUSH32 0x7472616E7366657228616464726573732C75696E743235362900000000000000 PUSH1 0x20 SWAP2 DUP3 ADD MSTORE DUP2 MLOAD PUSH20 0xFFFFFFFFFFFFFFFFFFFFFFFFFFFFFFFFFFFFFFFF DUP6 DUP2 AND PUSH1 0x24 DUP4 ADD MSTORE PUSH1 0x44 DUP1 DUP4 ADD DUP7 SWAP1 MSTORE DUP5 MLOAD DUP1 DUP5 SUB SWAP1 SWAP2 ADD DUP2 MSTORE PUSH1 0x64 SWAP1 SWAP3 ADD DUP5 MSTORE SWAP2 DUP2 ADD DUP1 MLOAD PUSH28 0xFFFFFFFFFFFFFFFFFFFFFFFFFFFFFFFFFFFFFFFFFFFFFFFFFFFFFFFF AND PUSH32 0xA9059CBB00000000000000000000000000000000000000000000000000000000 OR DUP2 MSTORE SWAP3 MLOAD DUP2 MLOAD PUSH1 0x0 SWAP5 PUSH1 0x60 SWAP5 DUP10 AND SWAP4 SWAP3 SWAP2 DUP3 SWAP2 SWAP1 DUP1 DUP4 DUP4 JUMPDEST PUSH1 0x20 DUP4 LT PUSH2 0x2324 JUMPI DUP1 MLOAD DUP3 MSTORE PUSH32 0xFFFFFFFFFFFFFFFFFFFFFFFFFFFFFFFFFFFFFFFFFFFFFFFFFFFFFFFFFFFFFFE0 SWAP1 SWAP3 ADD SWAP2 PUSH1 0x20 SWAP2 DUP3 ADD SWAP2 ADD PUSH2 0x22E7 JUMP JUMPDEST PUSH1 0x1 DUP4 PUSH1 0x20 SUB PUSH2 0x100 EXP SUB DUP1 NOT DUP3 MLOAD AND DUP2 DUP5 MLOAD AND DUP1 DUP3 OR DUP6 MSTORE POP POP POP POP POP POP SWAP1 POP ADD SWAP2 POP POP PUSH1 0x0 PUSH1 0x40 MLOAD DUP1 DUP4 SUB DUP2 PUSH1 0x0 DUP7 GAS CALL SWAP2 POP POP RETURNDATASIZE DUP1 PUSH1 0x0 DUP2 EQ PUSH2 0x2386 JUMPI PUSH1 0x40 MLOAD SWAP2 POP PUSH1 0x1F NOT PUSH1 0x3F RETURNDATASIZE ADD AND DUP3 ADD PUSH1 0x40 MSTORE RETURNDATASIZE DUP3 MSTORE RETURNDATASIZE PUSH1 0x0 PUSH1 0x20 DUP5 ADD RETURNDATACOPY PUSH2 0x238B JUMP JUMPDEST PUSH1 0x60 SWAP2 POP JUMPDEST POP SWAP2 POP SWAP2 POP DUP2 DUP1 ISZERO PUSH2 0x23B9 JUMPI POP DUP1 MLOAD ISZERO DUP1 PUSH2 0x23B9 JUMPI POP DUP1 DUP1 PUSH1 0x20 ADD SWAP1 MLOAD PUSH1 0x20 DUP2 LT ISZERO PUSH2 0x23B6 JUMPI PUSH1 0x0 DUP1 REVERT JUMPDEST POP MLOAD JUMPDEST PUSH2 0x2424 JUMPI PUSH1 0x40 DUP1 MLOAD PUSH32 0x8C379A000000000000000000000000000000000000000000000000000000000 DUP2 MSTORE PUSH1 0x20 PUSH1 0x4 DUP3 ADD MSTORE PUSH1 0x1B PUSH1 0x24 DUP3 ADD MSTORE PUSH32 0x556E6973776170464C523A205452414E534645525F4641494C45440000000000 PUSH1 0x44 DUP3 ADD MSTORE SWAP1 MLOAD SWAP1 DUP2 SWAP1 SUB PUSH1 0x64 ADD SWAP1 REVERT JUMPDEST POP POP POP POP POP JUMP JUMPDEST PUSH1 0x0 DUP2 ISZERO DUP1 PUSH2 0x2446 JUMPI POP POP DUP1 DUP3 MUL DUP3 DUP3 DUP3 DUP2 PUSH2 0x2443 JUMPI INVALID JUMPDEST DIV EQ JUMPDEST PUSH2 0x1015 JUMPI PUSH1 0x40 DUP1 MLOAD PUSH32 0x8C379A000000000000000000000000000000000000000000000000000000000 DUP2 MSTORE PUSH1 0x20 PUSH1 0x4 DUP3 ADD MSTORE PUSH1 0x14 PUSH1 0x24 DUP3 ADD MSTORE PUSH32 0x64732D6D6174682D6D756C2D6F766572666C6F77000000000000000000000000 PUSH1 0x44 DUP3 ADD MSTORE SWAP1 MLOAD SWAP1 DUP2 SWAP1 SUB PUSH1 0x64 ADD SWAP1 REVERT JUMPDEST DUP1 DUP3 SUB DUP3 DUP2 GT ISZERO PUSH2 0x1015 JUMPI PUSH1 0x40 DUP1 MLOAD PUSH32 0x8C379A000000000000000000000000000000000000000000000000000000000 DUP2 MSTORE PUSH1 0x20 PUSH1 0x4 DUP3 ADD MSTORE PUSH1 0x15 PUSH1 0x24 DUP3 ADD MSTORE PUSH32 0x64732D6D6174682D7375622D756E646572666C6F770000000000000000000000 PUSH1 0x44 DUP3 ADD MSTORE SWAP1 MLOAD SWAP1 DUP2 SWAP1 SUB PUSH1 0x64 ADD SWAP1 REVERT JUMPDEST PUSH14 0xFFFFFFFFFFFFFFFFFFFFFFFFFFFF DUP5 GT DUP1 ISZERO SWAP1 PUSH2 0x254F JUMPI POP PUSH14 0xFFFFFFFFFFFFFFFFFFFFFFFFFFFF DUP4 GT ISZERO JUMPDEST PUSH2 0x25BA JUMPI PUSH1 0x40 DUP1 MLOAD PUSH32 0x8C379A000000000000000000000000000000000000000000000000000000000 DUP2 MSTORE PUSH1 0x20 PUSH1 0x4 DUP3 ADD MSTORE PUSH1 0x14 PUSH1 0x24 DUP3 ADD MSTORE PUSH32 0x556E6973776170464C523A204F564552464C4F57000000000000000000000000 PUSH1 0x44 DUP3 ADD MSTORE SWAP1 MLOAD SWAP1 DUP2 SWAP1 SUB PUSH1 0x64 ADD SWAP1 REVERT JUMPDEST PUSH1 0x9 SLOAD PUSH4 0xFFFFFFFF TIMESTAMP DUP2 AND SWAP2 PUSH29 0x100000000000000000000000000000000000000000000000000000000 SWAP1 DIV DUP2 AND DUP3 SUB SWAP1 DUP2 AND ISZERO DUP1 ISZERO SWAP1 PUSH2 0x260A JUMPI POP PUSH14 0xFFFFFFFFFFFFFFFFFFFFFFFFFFFF DUP5 AND ISZERO ISZERO JUMPDEST DUP1 ISZERO PUSH2 0x2625 JUMPI POP PUSH14 0xFFFFFFFFFFFFFFFFFFFFFFFFFFFF DUP4 AND ISZERO ISZERO JUMPDEST ISZERO PUSH2 0x26D5 JUMPI DUP1 PUSH4 0xFFFFFFFF AND PUSH2 0x2668 DUP6 PUSH2 0x263E DUP7 PUSH2 0x2B50 JUMP JUMPDEST PUSH28 0xFFFFFFFFFFFFFFFFFFFFFFFFFFFFFFFFFFFFFFFFFFFFFFFFFFFFFFFF AND SWAP1 PUSH4 0xFFFFFFFF PUSH2 0x2B74 AND JUMP JUMPDEST PUSH1 0xA DUP1 SLOAD PUSH28 0xFFFFFFFFFFFFFFFFFFFFFFFFFFFFFFFFFFFFFFFFFFFFFFFFFFFFFFFF SWAP3 SWAP1 SWAP3 AND SWAP3 SWAP1 SWAP3 MUL ADD SWAP1 SSTORE PUSH4 0xFFFFFFFF DUP2 AND PUSH2 0x26A8 DUP5 PUSH2 0x263E DUP8 PUSH2 0x2B50 JUMP JUMPDEST PUSH1 0xB DUP1 SLOAD PUSH28 0xFFFFFFFFFFFFFFFFFFFFFFFFFFFFFFFFFFFFFFFFFFFFFFFFFFFFFFFF SWAP3 SWAP1 SWAP3 AND SWAP3 SWAP1 SWAP3 MUL ADD SWAP1 SSTORE JUMPDEST PUSH1 0x9 DUP1 SLOAD PUSH32 0xFFFFFFFFFFFFFFFFFFFFFFFFFFFFFFFFFFFF0000000000000000000000000000 AND PUSH14 0xFFFFFFFFFFFFFFFFFFFFFFFFFFFF DUP9 DUP2 AND SWAP2 SWAP1 SWAP2 OR PUSH32 0xFFFFFFFF0000000000000000000000000000FFFFFFFFFFFFFFFFFFFFFFFFFFFF AND PUSH15 0x10000000000000000000000000000 DUP9 DUP4 AND DUP2 MUL SWAP2 SWAP1 SWAP2 OR PUSH28 0xFFFFFFFFFFFFFFFFFFFFFFFFFFFFFFFFFFFFFFFFFFFFFFFFFFFFFFFF AND PUSH29 0x100000000000000000000000000000000000000000000000000000000 PUSH4 0xFFFFFFFF DUP8 AND MUL OR SWAP3 DUP4 SWAP1 SSTORE PUSH1 0x40 DUP1 MLOAD DUP5 DUP5 AND DUP2 MSTORE SWAP2 SWAP1 SWAP4 DIV SWAP1 SWAP2 AND PUSH1 0x20 DUP3 ADD MSTORE DUP2 MLOAD PUSH32 0x1C411E9A96E071241C2F21F7726B17AE89E3CAB4C78BE50E062B03A9FFFBBAD1 SWAP3 SWAP2 DUP2 SWAP1 SUB SWAP1 SWAP2 ADD SWAP1 LOG1 POP POP POP POP POP POP JUMP JUMPDEST PUSH20 0xFFFFFFFFFFFFFFFFFFFFFFFFFFFFFFFFFFFFFFFF DUP1 DUP5 AND PUSH1 0x0 DUP2 DUP2 MSTORE PUSH1 0x2 PUSH1 0x20 SWAP1 DUP2 MSTORE PUSH1 0x40 DUP1 DUP4 KECCAK256 SWAP5 DUP8 AND DUP1 DUP5 MSTORE SWAP5 DUP3 MSTORE SWAP2 DUP3 SWAP1 KECCAK256 DUP6 SWAP1 SSTORE DUP2 MLOAD DUP6 DUP2 MSTORE SWAP2 MLOAD PUSH32 0x8C5BE1E5EBEC7D5BD14F71427D1E84F3DD0314C0F7B2291E5B200AC8C7C3B925 SWAP3 DUP2 SWAP1 SUB SWAP1 SWAP2 ADD SWAP1 LOG3 POP POP POP JUMP JUMPDEST PUSH20 0xFFFFFFFFFFFFFFFFFFFFFFFFFFFFFFFFFFFFFFFF DUP4 AND PUSH1 0x0 SWAP1 DUP2 MSTORE PUSH1 0x1 PUSH1 0x20 MSTORE PUSH1 0x40 SWAP1 KECCAK256 SLOAD PUSH2 0x2884 SWAP1 DUP3 PUSH4 0xFFFFFFFF PUSH2 0x24B1 AND JUMP JUMPDEST PUSH20 0xFFFFFFFFFFFFFFFFFFFFFFFFFFFFFFFFFFFFFFFF DUP1 DUP6 AND PUSH1 0x0 SWAP1 DUP2 MSTORE PUSH1 0x1 PUSH1 0x20 MSTORE PUSH1 0x40 DUP1 DUP3 KECCAK256 SWAP4 SWAP1 SWAP4 SSTORE SWAP1 DUP5 AND DUP2 MSTORE KECCAK256 SLOAD PUSH2 0x28C6 SWAP1 DUP3 PUSH4 0xFFFFFFFF PUSH2 0x2BB5 AND JUMP JUMPDEST PUSH20 0xFFFFFFFFFFFFFFFFFFFFFFFFFFFFFFFFFFFFFFFF DUP1 DUP5 AND PUSH1 0x0 DUP2 DUP2 MSTORE PUSH1 0x1 PUSH1 0x20 SWAP1 DUP2 MSTORE PUSH1 0x40 SWAP2 DUP3 SWAP1 KECCAK256 SWAP5 SWAP1 SWAP5 SSTORE DUP1 MLOAD DUP6 DUP2 MSTORE SWAP1 MLOAD SWAP2 SWAP4 SWAP3 DUP8 AND SWAP3 PUSH32 0xDDF252AD1BE2C89B69C2B068FC378DAA952BA7F163C4A11628F55A4DF523B3EF SWAP3 SWAP2 DUP3 SWAP1 SUB ADD SWAP1 LOG3 POP POP POP JUMP JUMPDEST PUSH1 0x0 PUSH1 0x3 DUP3 GT ISZERO PUSH2 0x2972 JUMPI POP DUP1 PUSH1 0x1 PUSH1 0x2 DUP3 DIV ADD JUMPDEST DUP2 DUP2 LT ISZERO PUSH2 0x296C JUMPI DUP1 SWAP2 POP PUSH1 0x2 DUP2 DUP3 DUP6 DUP2 PUSH2 0x295B JUMPI INVALID JUMPDEST DIV ADD DUP2 PUSH2 0x2964 JUMPI INVALID JUMPDEST DIV SWAP1 POP PUSH2 0x2944 JUMP JUMPDEST POP PUSH2 0x297C JUMP JUMPDEST DUP2 ISZERO PUSH2 0x297C JUMPI POP PUSH1 0x1 JUMPDEST SWAP2 SWAP1 POP JUMP JUMPDEST PUSH1 0x0 SLOAD PUSH2 0x2994 SWAP1 DUP3 PUSH4 0xFFFFFFFF PUSH2 0x2BB5 AND JUMP JUMPDEST PUSH1 0x0 SWAP1 DUP2 SSTORE PUSH20 0xFFFFFFFFFFFFFFFFFFFFFFFFFFFFFFFFFFFFFFFF DUP4 AND DUP2 MSTORE PUSH1 0x1 PUSH1 0x20 MSTORE PUSH1 0x40 SWAP1 KECCAK256 SLOAD PUSH2 0x29CC SWAP1 DUP3 PUSH4 0xFFFFFFFF PUSH2 0x2BB5 AND JUMP JUMPDEST PUSH20 0xFFFFFFFFFFFFFFFFFFFFFFFFFFFFFFFFFFFFFFFF DUP4 AND PUSH1 0x0 DUP2 DUP2 MSTORE PUSH1 0x1 PUSH1 0x20 SWAP1 DUP2 MSTORE PUSH1 0x40 DUP1 DUP4 KECCAK256 SWAP5 SWAP1 SWAP5 SSTORE DUP4 MLOAD DUP6 DUP2 MSTORE SWAP4 MLOAD SWAP3 SWAP4 SWAP2 SWAP3 PUSH32 0xDDF252AD1BE2C89B69C2B068FC378DAA952BA7F163C4A11628F55A4DF523B3EF SWAP3 DUP2 SWAP1 SUB SWAP1 SWAP2 ADD SWAP1 LOG3 POP POP JUMP JUMPDEST PUSH1 0x0 DUP2 DUP4 LT PUSH2 0x2A40 JUMPI DUP2 PUSH2 0x2A42 JUMP JUMPDEST DUP3 JUMPDEST SWAP4 SWAP3 POP POP POP JUMP JUMPDEST PUSH1 0x0 PUSH2 0x2A42 DUP4 DUP4 PUSH1 0x40 MLOAD DUP1 PUSH1 0x40 ADD PUSH1 0x40 MSTORE DUP1 PUSH1 0x1A DUP2 MSTORE PUSH1 0x20 ADD PUSH32 0x536166654D6174683A206469766973696F6E206279207A65726F000000000000 DUP2 MSTORE POP PUSH2 0x2C27 JUMP JUMPDEST PUSH20 0xFFFFFFFFFFFFFFFFFFFFFFFFFFFFFFFFFFFFFFFF DUP3 AND PUSH1 0x0 SWAP1 DUP2 MSTORE PUSH1 0x1 PUSH1 0x20 MSTORE PUSH1 0x40 SWAP1 KECCAK256 SLOAD PUSH2 0x2AC1 SWAP1 DUP3 PUSH4 0xFFFFFFFF PUSH2 0x24B1 AND JUMP JUMPDEST PUSH20 0xFFFFFFFFFFFFFFFFFFFFFFFFFFFFFFFFFFFFFFFF DUP4 AND PUSH1 0x0 SWAP1 DUP2 MSTORE PUSH1 0x1 PUSH1 0x20 MSTORE PUSH1 0x40 DUP2 KECCAK256 SWAP2 SWAP1 SWAP2 SSTORE SLOAD PUSH2 0x2AFB SWAP1 DUP3 PUSH4 0xFFFFFFFF PUSH2 0x24B1 AND JUMP JUMPDEST PUSH1 0x0 SWAP1 DUP2 SSTORE PUSH1 0x40 DUP1 MLOAD DUP4 DUP2 MSTORE SWAP1 MLOAD PUSH20 0xFFFFFFFFFFFFFFFFFFFFFFFFFFFFFFFFFFFFFFFF DUP6 AND SWAP2 PUSH32 0xDDF252AD1BE2C89B69C2B068FC378DAA952BA7F163C4A11628F55A4DF523B3EF SWAP2 SWAP1 DUP2 SWAP1 SUB PUSH1 0x20 ADD SWAP1 LOG3 POP POP JUMP JUMPDEST PUSH14 0xFFFFFFFFFFFFFFFFFFFFFFFFFFFF AND PUSH15 0x10000000000000000000000000000 MUL SWAP1 JUMP JUMPDEST PUSH1 0x0 PUSH14 0xFFFFFFFFFFFFFFFFFFFFFFFFFFFF DUP3 AND PUSH28 0xFFFFFFFFFFFFFFFFFFFFFFFFFFFFFFFFFFFFFFFFFFFFFFFFFFFFFFFF DUP5 AND DUP2 PUSH2 0x2BAD JUMPI INVALID JUMPDEST DIV SWAP4 SWAP3 POP POP POP JUMP JUMPDEST DUP1 DUP3 ADD DUP3 DUP2 LT ISZERO PUSH2 0x1015 JUMPI PUSH1 0x40 DUP1 MLOAD PUSH32 0x8C379A000000000000000000000000000000000000000000000000000000000 DUP2 MSTORE PUSH1 0x20 PUSH1 0x4 DUP3 ADD MSTORE PUSH1 0x14 PUSH1 0x24 DUP3 ADD MSTORE PUSH32 0x64732D6D6174682D6164642D6F766572666C6F77000000000000000000000000 PUSH1 0x44 DUP3 ADD MSTORE SWAP1 MLOAD SWAP1 DUP2 SWAP1 SUB PUSH1 0x64 ADD SWAP1 REVERT JUMPDEST PUSH1 0x0 DUP2 DUP4 PUSH2 0x2CCD JUMPI PUSH1 0x40 MLOAD PUSH32 0x8C379A000000000000000000000000000000000000000000000000000000000 DUP2 MSTORE PUSH1 0x4 ADD DUP1 DUP1 PUSH1 0x20 ADD DUP3 DUP2 SUB DUP3 MSTORE DUP4 DUP2 DUP2 MLOAD DUP2 MSTORE PUSH1 0x20 ADD SWAP2 POP DUP1 MLOAD SWAP1 PUSH1 0x20 ADD SWAP1 DUP1 DUP4 DUP4 PUSH1 0x0 JUMPDEST DUP4 DUP2 LT ISZERO PUSH2 0x2C92 JUMPI DUP2 DUP2 ADD MLOAD DUP4 DUP3 ADD MSTORE PUSH1 0x20 ADD PUSH2 0x2C7A JUMP JUMPDEST POP POP POP POP SWAP1 POP SWAP1 DUP2 ADD SWAP1 PUSH1 0x1F AND DUP1 ISZERO PUSH2 0x2CBF JUMPI DUP1 DUP3 SUB DUP1 MLOAD PUSH1 0x1 DUP4 PUSH1 0x20 SUB PUSH2 0x100 EXP SUB NOT AND DUP2 MSTORE PUSH1 0x20 ADD SWAP2 POP JUMPDEST POP SWAP3 POP POP POP PUSH1 0x40 MLOAD DUP1 SWAP2 SUB SWAP1 REVERT JUMPDEST POP PUSH1 0x0 DUP4 DUP6 DUP2 PUSH2 0x2CD9 JUMPI INVALID JUMPDEST DIV SWAP6 SWAP5 POP POP POP POP POP JUMP INVALID SSTORE PUSH15 0x6973776170464C523A20494E535546 CHAINID 0x49 NUMBER 0x49 GASLIMIT 0x4E SLOAD 0x5F 0x4C 0x49 MLOAD SSTORE 0x49 DIFFICULTY 0x49 SLOAD MSIZE 0x5F 0x4D 0x49 0x4E SLOAD GASLIMIT DIFFICULTY SSTORE PUSH15 0x697377617056323A20494E53554646 0x49 NUMBER 0x49 GASLIMIT 0x4E SLOAD 0x5F 0x4C 0x49 MLOAD SSTORE 0x49 DIFFICULTY 0x49 SLOAD MSIZE POP PUSH6 0x726D69742861 PUSH5 0x6472657373 KECCAK256 PUSH16 0x776E65722C6164647265737320737065 PUSH15 0x6465722C75696E743235362076616C PUSH22 0x652C75696E74323536206E6F6E63652C75696E743235 CALLDATASIZE KECCAK256 PUSH5 0x6561646C69 PUSH15 0x6529556E6973776170464C523A2049 0x4E MSTORE8 SSTORE CHAINID CHAINID 0x49 NUMBER 0x49 GASLIMIT 0x4E SLOAD 0x5F 0x4C 0x49 MLOAD SSTORE 0x49 DIFFICULTY 0x49 SLOAD MSIZE 0x5F TIMESTAMP SSTORE MSTORE 0x4E GASLIMIT DIFFICULTY SSTORE PUSH15 0x6973776170464C523A20494E535546 CHAINID 0x49 NUMBER 0x49 GASLIMIT 0x4E SLOAD 0x5F 0x49 0x4E POP SSTORE SLOAD 0x5F COINBASE 0x4D 0x4F SSTORE 0x4E SLOAD SSTORE PUSH15 0x6973776170464C523A20494E535546 CHAINID 0x49 NUMBER 0x49 GASLIMIT 0x4E SLOAD 0x5F 0x4F SSTORE SLOAD POP SSTORE SLOAD 0x5F COINBASE 0x4D 0x4F SSTORE 0x4E SLOAD LOG2 PUSH6 0x627A7A723158 KECCAK256 ORIGIN RETURNDATACOPY 0x5C 0x5C 0xCA 0xBF LT DIFFICULTY 0xBC SIGNEXTEND DUP4 0x4B PUSH2 0x406F LT SWAP16 SSTORE SWAP13 0xE9 RETURNDATASIZE 0xE6 MLOAD PUSH6 0xFF31E31D57E6 0xBF AND PUSH5 0x736F6C6343 STOP SDIV LT STOP ORIGIN GASLIMIT 0x49 POP CALLDATACOPY BALANCE ORIGIN DIFFICULTY PUSH16 0x6D61696E28737472696E67206E616D65 0x2C PUSH20 0x7472696E672076657273696F6E2C75696E743235 CALLDATASIZE KECCAK256 PUSH4 0x6861696E 0x49 PUSH5 0x2C61646472 PUSH6 0x737320766572 PUSH10 0x6679696E67436F6E7472 PUSH2 0x6374 0x29 LOG2 PUSH6 0x627A7A723158 KECCAK256 DIFFICULTY PUSH13 0x24CB0453B932D93C35AC039F5F 0xBA PUSH18 0xC40B472621E077D52B31D845EFBACD64736F PUSH13 0x63430005100032000000000000 "
    }
  },
  "interface": [
    {
      "inputs": [],
      "payable": false,
      "stateMutability": "nonpayable",
      "type": "constructor"
    },
    {
      "anonymous": false,
      "inputs": [
        {
          "indexed": true,
          "internalType": "address",
          "name": "token0",
          "type": "address"
        },
        {
          "indexed": true,
          "internalType": "address",
          "name": "token1",
          "type": "address"
        },
        {
          "indexed": false,
          "internalType": "address",
          "name": "pair",
          "type": "address"
        },
        {
          "indexed": false,
          "internalType": "uint256",
          "name": "",
          "type": "uint256"
        }
      ],
      "name": "PairCreated",
      "type": "event"
    },
    {
      "constant": true,
      "inputs": [],
      "name": "INIT_CODE_PAIR_HASH",
      "outputs": [
        {
          "internalType": "bytes32",
          "name": "",
          "type": "bytes32"
        }
      ],
      "payable": false,
      "stateMutability": "view",
      "type": "function"
    },
    {
      "constant": false,
      "inputs": [
        {
          "internalType": "address",
          "name": "token",
          "type": "address"
        },
        {
          "internalType": "address",
          "name": "to",
          "type": "address"
        },
        {
          "internalType": "uint256",
          "name": "value",
          "type": "uint256"
        }
      ],
      "name": "_safeTransfer",
      "outputs": [],
      "payable": true,
      "stateMutability": "payable",
      "type": "function"
    },
    {
      "constant": true,
      "inputs": [
        {
          "internalType": "uint256",
          "name": "",
          "type": "uint256"
        }
      ],
      "name": "allPairs",
      "outputs": [
        {
          "internalType": "address",
          "name": "",
          "type": "address"
        }
      ],
      "payable": false,
      "stateMutability": "view",
      "type": "function"
    },
    {
      "constant": true,
      "inputs": [],
      "name": "allPairsLength",
      "outputs": [
        {
          "internalType": "uint256",
          "name": "",
          "type": "uint256"
        }
      ],
      "payable": false,
      "stateMutability": "view",
      "type": "function"
    },
    {
      "constant": false,
      "inputs": [
        {
          "internalType": "address",
          "name": "tokenA",
          "type": "address"
        },
        {
          "internalType": "address",
          "name": "tokenB",
          "type": "address"
        }
      ],
      "name": "createPair",
      "outputs": [
        {
          "internalType": "address",
          "name": "pair",
          "type": "address"
        }
      ],
      "payable": false,
      "stateMutability": "nonpayable",
      "type": "function"
    },
    {
      "constant": true,
      "inputs": [],
      "name": "feeTo",
      "outputs": [
        {
          "internalType": "address",
          "name": "",
          "type": "address"
        }
      ],
      "payable": false,
      "stateMutability": "view",
      "type": "function"
    },
    {
      "constant": true,
      "inputs": [],
      "name": "feeToSetter",
      "outputs": [
        {
          "internalType": "address",
          "name": "",
          "type": "address"
        }
      ],
      "payable": false,
      "stateMutability": "view",
      "type": "function"
    },
    {
      "constant": true,
      "inputs": [
        {
          "internalType": "address",
          "name": "",
          "type": "address"
        },
        {
          "internalType": "address",
          "name": "",
          "type": "address"
        }
      ],
      "name": "getPair",
      "outputs": [
        {
          "internalType": "address",
          "name": "",
          "type": "address"
        }
      ],
      "payable": false,
      "stateMutability": "view",
      "type": "function"
    },
    {
      "constant": false,
      "inputs": [
        {
          "internalType": "address",
          "name": "_feeTo",
          "type": "address"
        }
      ],
      "name": "setFeeTo",
      "outputs": [],
      "payable": false,
      "stateMutability": "nonpayable",
      "type": "function"
    },
    {
      "constant": false,
      "inputs": [
        {
          "internalType": "address",
          "name": "_feeToSetter",
          "type": "address"
        }
      ],
      "name": "setFeeToSetter",
      "outputs": [],
      "payable": false,
      "stateMutability": "nonpayable",
      "type": "function"
    }
  ]
}